:1000000000800020BD010000594900001D4900008A
:100010001D4900001D4900001D4900001D49000048
:100020001D4900001D4900001D49000059490000FC
:10003000594900001D490000594900000D490000C0
:100040005949000059490000594900005949000028
:100050005949000059490000594900005949000018
:100060005949000059490000594900005949000008
:1000700059490000594900005949000059490000F8
:1000800059490000594900005949000059490000E8
:1000900059490000594900005949000059490000D8
:1000A000493D0000594900005949000059490000E4
:1000B00059490000594900005949000059490000B8
:1000C00059490000594900005949000059490000A8
:1000D0005949000059490000594900005949000098
:1000E0005949000059490000594900005949000088
:1000F00059490000A165000059490000056D000044
:100100005949000081720000594900005949000016
:100110005949000059490000594900005949000057
:100120005949000059490000594900005949000047
:100130005949000059490000594900005949000037
:100140005949000059490000594900005949000027
:100150005949000059490000594900005949000017
:1001600059490000614F00005949000059490000F9
:1001700059490000594900005949000059490000F7
:1001800059490000594900005949000059490000E7
:1001900059490000594900005949000059490000D7
:1001A00059490000594900005949000059490000C7
:1001B000594900005949000059490000574B4CF279
:1001C000205210B51A804DF628121A8000BF00BFC9
:1001D00004F0C6FB524B4FF010621A60514A9A600D
:1001E000514ADA60A3F53043203B1A6812F480725A
:1001F00004D14E490A604FF4A8521A604C4B1A7849
:10020000110703D51A7842F008021A70494B4A4C7C
:100210004A482A221A704A4A00239918A14203D256
:10022000195899500433F8E7464B474900228B424E
:1002300002D243F8042BFAE74448454900235A58B0
:100240001A500433B3F5DE7FF9D1424B424A802184
:1002500003F8011B9342FBD1404B3C4A1A60404BD0
:100260008A221A70A3F5805324225A70A0221A7091
:100270009A799207FCD59A79D406FCD4394A9379B5
:1002800003F00C03082B374BF9D103221A714022DB
:100290005A719A799006FCD5324A9179314B4906C8
:1002A000FBD5314A314911600221516020221A7078
:1002B0009A7902F00C020C2AFAD12D4B2D4A1A60C1
:1002C0002D4B2E4A1A6000225A60072243F8042C54
:1002D0002B4AC3F80C2D62B604F002FD134B1B68C9
:1002E000DA0705D5274804F031FC274B274A1A6066
:1002F000274B1B785B0609D5234C244A236893427D
:1003000004D1204804F022FC0023236007F066FAA1
:1003100004F02CFB05F0B4FDFEE700BF0E20054005
:1003200030800440823F04000100002B14D00340C1
:1003300002D0074000E007407892FF1F549200006F
:100340006087FF1F7892FF1FD43100200082FF1FBB
:100350000000000000E400E05FE400E008ED00E0E1
:100360000050064000400640448004400000030165
:1003700004800440C010050014E000E0FF76010096
:1003800000002020A185A7581CE00340A5C3945A73
:1003900000F00740FFFFFFFFFFFFFFFFFFFFFFFF32
:1003A000FFFFFFFFFFFFFFFFFFFFFFFFFFFFFFFF5D
:1003B000FFFFFFFFFFFFFFFFFFFFFFFFFFFFFFFF4D
:1003C000FFFFFFFFFFFFFFFFFFFFFFFFFFFFFFFF3D
:1003D000FFFFFFFFFFFFFFFFFFFFFFFFFFFFFFFF2D
:1003E000FFFFFFFFFFFFFFFFFFFFFFFFFFFFFFFF1D
:1003F000FFFFFFFFFFFFFFFFFFFFFFFFFFFFFFFF0D
:10040000FFFFFFFFFFFFFFFFFFFFFFFFDEF9FFFF23
:1004100010B5054C237833B9044B13B10448AFF33E
:1004200000800123237010BD7892FF1F00000000A0
:100430005492000008B5064B1BB106480649AFF3BD
:1004400000800648036813B1054B03B1984708BD07
:1004500000000000549200007C92FF1F7892FF1F62
:100460000000000008B5083002F0CEF808BD00BF5B
:1004700000B583B002AB03F8011D08301946012214
:1004800002F0C2F803B05DF804FB00BF10B50446EB
:10049000103005F05FFB204605F05CFB204610BDE8
:1004A00038B5074D05F67874283D04F1100005F0C5
:1004B00051FB204605F04EFB283CAC42F5D138BD3F
:1004C0006497FF1F08B504F0D3FB1A4B1B68C01AD2
:1004D000194A90422CDD082004F06CFB20B9174B20
:1004E0001A7882F001021A70072004F063FBA0B9A9
:1004F000124B1B7813F0FF0F0AD10EE00F4B1B7845
:1005000013F0FF0F0FD104F0B3FB0A4B186008BDC6
:100510000B4B1A68013A1A60F5E7092004F04AFB10
:100520000028EBD0EFE7064B1A6801321A60EAE7C1
:1005300008BD00BFE892FF1F3F0D03003CA7FF1F4F
:1005400040A7FF1F08B50C4B1B68B3F5527F11D1B4
:10055000012004F02FFB0128084B1A680CBF02F1A0
:10056000FF3201321A60054B1B68002B02DA0022B1
:10057000024B1A6008BD00BF48A7FF1F8888FF1FF5
:1005800008B5022004F016FBD0F1010038BF0020AE
:10059000014B186008BD00BF182E002038B50E2092
:1005A00004F008FB0546112004F004FB041C18BFEE
:1005B000012424B91020012104F00AFB03E01020DB
:1005C000002104F005FB8DB90320012104F000FB9C
:1005D0000420012104F0FCFA0520012104F0F8FABE
:1005E0000620012104F0F4FADCB111E0032000211F
:1005F00004F0EEFA0420002104F0EAFA05200021BC
:1006000004F0E6FA0620002104F0E2FA74B904E0EE
:100610004FF45272074B1A6038BD8C22054B1A609A
:1006200038BD4FF45272034B1A6038BD0022014BA3
:100630001A6038BD48A7FF1F70B52D4B1B688C2B67
:1006400055D100242B4D2C4E2B689C4208D016F817
:10065000240004F0AFFA012802D1284B1C6002E00C
:100660000134042CF0D1254B1A68224B1B689A42A6
:100670003DD0204B1B68032B23D1204B1B682BB391
:100680001FE01E4B1B68032B2AD124E01C4B1A6869
:1006900001321A6009E0194B1A68164B1B689A421E
:1006A00003DA174B1A68013A1A60154B1B68002BC6
:1006B00002DA0022124B1A60104B1A680D4B1A60B6
:1006C00070BD0C4B1B68002BDBD009E00C4B1A688B
:1006D00001321A60E9E70A4B1A68013A1A60E4E746
:1006E000064B1A68034B1B689A42CFDCD3E770BDF8
:1006F00048A7FF1FA40D0020008B0000EC92FF1FF5
:1007000038A7FF1F10B50446002105F06FFA04F169
:100710001000002105F06AFA204610BD38B52C4BB8
:100720001B68B3F5527F0CD12A4C20460C210122C4
:1007300003F0C0FC23685B682046274902229847E3
:1007400028E0234B1B688C2B0CD1224C20460C211B
:10075000002203F0AFFC23685B6820461E4902229A
:10076000984717E01B4C20460C21012203F0A2FC05
:1007700023681A4D5B682046294602229847204686
:100780000C21002203F096FC23685B682046294672
:1007900002229847124B1B68632B0E48CCBF0D21D9
:1007A0000E21012203F086FC0E4B1968094C0C4BFC
:1007B0001B682046194405F0BDF920460E21002291
:1007C00003F078FC2046084B196805F0B3F938BDF2
:1007D00048A7FF1FF80D0020108B0000148B0000AD
:1007E000142E0020182E002008A7FF1F30B589B056
:1007F000174C204603F04AFC204600210A4603F02D
:1008000059FC144D6846294605F0F0F9684612492E
:1008100005F084FA0146204605F01AF9684605F00D
:1008200099F920460021012203F044FC04A829463E
:1008300005F0DCF904A8094905F070FA01462046E4
:1008400005F006F904A805F085F909B030BD00BF30
:10085000F80D0020D48B0000D00D0020A80D002042
:10086000F0B40D780E24072300264FF0020C012768
:1008700040FA03F212F0010203D007FA04F52E4306
:1008800004E01AB915B90CFA04F52E43013B023CF9
:10089000B3F1FF3F01D01546EAE70A703046F0BCDD
:1008A000704700BFF0B40724104A114F8025114E45
:1008B00040FA04F313F0010F0CD03D601168136887
:1008C0005B1A5D2BFBD93560116813685B1A3F2BEF
:1008D000FBD904E0116813685B1A9F2BFBD9013C1C
:1008E000B4F1FF3FE4D1F0BC704700BF041000E05A
:1008F000C8F00F40C4F00F40F0B407238021DFF8A8
:1009000044C0012420270E4E602540FA03F212F065
:10091000010F0BD0CCF800403A46013A7FF4FDAF0E
:1009200034602A46013A7FF4FDAF03E00A46013AFB
:100930007FF4FDAF013BB3F1FF3FE6D1F0BC704760
:1009400048F00F4044F00F40F8B54FF48052164B7A
:100950001A60164B1B68002B24DD154B1A68154BCB
:100960001B68B3EB420F1DD10024134E134D144FDF
:100970000BE00F4B1A680F4B1B68B3EB420F11D102
:10098000BC2C04BF4FF480533B60336843F22C32DD
:1009900002FB0343E85CFFF785FF0134034B1B6850
:1009A000A342E6DCF8BD00BF08F00F409488FF1FAB
:1009B0008888FF1F142E0020182E00204CA7FF1F30
:1009C00004F00F402DE9F843144B1B6803EBD3737D
:1009D000134A1268B2EB630F1DD1124D05F5F057A3
:1009E0000026DFF83890DFF838800AE0D9F80030C8
:1009F00005F5007503EBD373D8F80020B2EB630F55
:100A000009D13446285DFFF777FF0134B4F5007F44
:100A1000F8D1BD42EAD1BDE8F88300BF38A7FF1F77
:100A200008A7FF1F140E00202DE9F04706462C4BA7
:100A30001B6800EB0313DB6853B9294B1A6800EB02
:100A40000212002191601B6800EB0313BE22DA60E2
:100A5000234B1B681B01F358002B3EDD214B1A680A
:100A6000214B1B68B3EB420F37D100241C4DDFF83C
:100A700080A0DFF8809006E01A4B1A681A4B1B68BA
:100A8000B3EB420F29D12B68184F43F22C3808FBE7
:100A90000343F85CFFF706FF2B6808FB0377274446
:100AA0007878FFF7FFFE2B6806EB03139B689C42E8
:100AB00004BF4FF48053CAF800302B6806EB0313D1
:100AC000DB689C4204BF4FF48053C9F80030023405
:100AD0002B681B01F358A342CEDCBDE8F08700BFB2
:100AE000182E00208888FF1F142E00204CA7FF1FFF
:100AF00008F00F4004F00F402DE9F04F83B0074697
:100B00000E46914601238DF80730204B1B68002BC1
:100B100036DD002425464FF0890B4FF0240ADFF81C
:100B20006C8033195B78305D4BB90DF10701FFF72D
:100B300097FE6B1C020A7A55F85402351AE0012B15
:100B40000DD107F805B07A1982F801A0E91C5523E8
:100B500093707B54043501238DF807300AE0022B93
:100B60000FD0032B02D1C9F8084003E00D2B08BFBA
:100B7000C9F80C400234D8F80030A342D1DC00E0C0
:100B80000025C9F8005003B0BDE8F08F9488FF1F1E
:100B90002DE9F04FC9B006468B4601238DF813307E
:100BA000D2B20292044600F11A07AA2528460DF196
:100BB0001301FFF755FE030A237060700234BC4234
:100BC000F4D11A364FF41B79002301934FF001033F
:100BD0008DF80E306FF06A038DF80F309DF80E30EF
:100BE0008DF81330B2468923337024237370552354
:100BF000B370F3709DF80F308DF814306A238DF8C0
:100C000015305A238DF81930FE238DF81630029BCB
:100C10008DF81730019B8DF818300DF113050DF18B
:100C20001907344615F8010F0DF11301FFF718FEEF
:100C3000030A237160710234BD42F3D1A9F2422547
:100C4000A9F50E783446AA2738460DF11301FFF7AF
:100C500007FE030A23740235607402344545F3D15C
:100C60004FF001038DF8133089238AF81A302423BA
:100C70008AF81B3055238AF81C308AF81D3007A8E3
:100C800000214FF4827207F011F96A238DF81C30AD
:100C90006FF06A038DF81D305C4614F8FF2B8DF859
:100CA0001E200DF11E005946002307E011F8012F08
:100CB00000F8012FFF2BC4BF0133DBB21344A14264
:100CC000F4D18DF81E315A238DF81F310DF11B051B
:100CD0000DF21F17344615F8010F0DF11301FFF740
:100CE000BFFD030AA377E0770234BD42F3D1A9F137
:100CF0002C05C8463446AA2738460DF11301FFF7E4
:100D0000AFFD030A84F82632023584F82702023444
:100D10004545F1D1019B0133019309F2522906F2B5
:100D200052260BF5807B152B7FF458AF49B0BDE8F8
:100D3000F08F00BF70B4D7B0264B185C6C46002310
:100D400001EB0021244EC85C00F0030580080DF87B
:100D50000300552B03DC705D84F8550114E0A3F10A
:100D60005600552807D8755D94F8AB0140EA850018
:100D700084F8AB0108E0AB2B06DD755D94F8010249
:100D800040EA051084F801020133013CB3F5807F8D
:100D9000D9D10023184640F25516104D40F2571491
:100DA000552BD4BFC3EB0601A3F156011DF801106A
:100DB000B3F5AB7F07D04840285CD0540133A34241
:100DC00004D00846ECE70549095CD15457B070BC23
:100DD000704700BFF08A00008488FF1F4488FF1F0F
:100DE0002DE9F04FD7B08B4690464FEA620A4AF0A1
:100DF000AA0A4B4E0027FF254FF0030987E003F8AE
:100E0000015F9342FBD1344686F81690FC23F375BC
:100E100035764FF03F0E86F819E0CF20B076F322FA
:100E2000F2763377757786F81EE0F07786F8202023
:100E300086F82130D52286F82220AA2386F823308E
:100E4000962086F8240086F82550FE2086F8260095
:100E500086F827A068F0550086F82800781060F022
:100E6000550086F8290061F0550086F82A0088F0C0
:100E7000FE004140481060F0550086F82B0061F0FC
:100E8000550186F82C10DE2186F82D1086F82E30BC
:100E9000EB2186F82F1086F8305086F8315086F80E
:100EA000325086F8335086F8345086F8352086F86C
:100EB0003630AD2386F83730384659466A46FFF754
:100EC00039FF382340F28F1100AA1A4412F8382C47
:100ED000E25401338B42F7D1DE2384F88F31AA2309
:100EE00084F89031EB2384F891314FF4C973E554C1
:100EF0000133B3F5D07FFAD10022E2540133B3F5C8
:100F0000007FFAD1013706F50076102F04D0F9B230
:100F100006F11502731E72E757B0BDE8F08F00BFEF
:100F2000140E00202DE9F04FA9B000AF82463961C0
:100F3000BA6003F09DFEAE4B186007F12000AD498A
:100F400004F054FE07F12000396904F0E7FEAA49D5
:100F500004F0EEFE3A6910327A61114604F0DEFECA
:100F60000146A64C204604F073FD204604F096FD91
:100F700007F1200004F0EEFDFFF738FC7869A04986
:100F800004F00EFF002800F0CF813A69536A8C2BE1
:100F900040F0CA81D0E143F2D4029A4B1A60022396
:100FA000FB6019E07869984904F0FAFE30B14FF41B
:100FB0004A52944B1A600222FA600DE07869904917
:100FC00004F0EEFE30B14FF4A8528E4B1A600223AB
:100FD000FB6001E00222FA608A4B1B687B600733EA
:100FE00023F00703ADEB030DE9467869844904F06B
:100FF000D7FE40B13A69136A844A93420CBF4FF45A
:101000008073002300E000230AF1080A7D4A11687A
:101010005046BA6801FB023101F0B2F9FB68002BBF
:1010200000F04881DFF814B2794ABA610023FB610D
:10103000DFF8D08107F13000764904F0D7FD764B18
:10104000196807F140000A2204F020FE07F1300081
:1010500007F1400104F062FE704904F069FE0446A5
:1010600007F150006E4B19680A2204F00FFE20466B
:1010700007F1500104F052FE6A4904F059FE04469B
:1010800007F16000FA69D1B204F0ECFD204607F1E7
:10109000600104F043FE644904F04AFE044607F18F
:1010A0007000D8F800100A2204F0F0FD204607F185
:1010B000700104F033FE5D4904F03AFE01464F4CE6
:1010C000204604F0C5FC07F1700004F043FD07F171
:1010D000600004F03FFD07F1500004F03BFD07F114
:1010E000400004F037FD07F1300004F033FD03F059
:1010F000BFFD3F4B1968411A20460A22002304F025
:10110000DDFC204604F0CAFCD8F80050002D1BDDA1
:101110004FF480546E46AC42A8BF2C46E31D23F02A
:101120000703ADEB030D50466946224601F01AF85D
:10113000D8F80000401B48446946224603F028F9CD
:101140002D1BB546002DE5DC2C4C23685B68204642
:1011500037490F22984703F08BFD254B1968411A38
:1011600020460A22002304F0A9FC204604F096FC45
:101170003A69536A8C2B0AD17869214904F010FE30
:1011800028B158464946BA68FFF72AFE6FE07869E9
:101190001D4904F005FE002852D058464946BA6958
:1011A000FFF7AAFC07F18000224904F01FFD224B43
:1011B0001B681B0107F19000154AD1580A2204F060
:1011C00065FD07F1800007F1900104F0A7FD0146DD
:1011D0000A4C204604F03CFC204604F05FFC07F17A
:1011E000900004F0B7FC07F1800004F0B3FC3EE08F
:1011F00004A7FF1F188B0000288B0000B42F0020CD
:10120000348B00009488FF1F388B000000210D00F4
:101210009892FF1F3C8B00008888FF1F4C8B0000BA
:10122000142E0020508B00005C8B0000748B00009B
:10123000688B0000788B0000182E00204CA7FF1F41
:101240007869434904F0ACFD38B158464946FA691B
:10125000BB681A44FFF79CFC09E078693D4904F03B
:101260009FFD20B1584649467A6803F091F83A4C00
:1012700023685B68204639491122984703F0F8FC3F
:10128000374B1968411A20460A22002304F016FC45
:10129000204604F003FCFA690132FA610BF54C5B5D
:1012A0000BF12C0BBB691033BB61D3B2FA689A42C5
:1012B0003FF6C0AE3A69536AB3F5527F08D17869F8
:1012C000234904F06DFD18B143F2D402254B1A6096
:1012D000214C23685B68204623491E22984703F06F
:1012E000C7FC1F4D2B68C11A20460A22002304F0B8
:1012F000E5FB204604F0D2FBFFF710FA23685B6899
:1013000020461A491022984703F0B2FC2968411A76
:1013100020460A22002304F0D1FB204604F0BEFB45
:10132000204604F0BBFB0EE078690A4904F038FD62
:1013300000287FF430AE35E64FF48052094B1A6036
:101340000123FB6048E6A437BD46BDE8F08F00BF2F
:10135000348B00008C8B0000B42F0020908B000099
:1013600004A7FF1F9488FF1FA48B0000C48B0000FC
:1013700070B5CAB0744B1B681BB90022734B1A605E
:1013800004E0714B1A685200704B1A60704B1B6876
:101390001BB900226F4B1A6006E06D4B1B6803EB14
:1013A000D3735B106B4A13606B4B1B7813F0FF0F0A
:1013B00063D06A4B1B68002B05DA694B1A78013A37
:1013C000664B1A6008E0654B1B68654A12789A42C2
:1013D00002DC0022614B1A60604B1B68614A127884
:1013E0009A4204D1604B1B78002B40F076825F4C10
:1013F00023685B6820465E491E229847574D29683E
:10140000204604F097FB204604F048FB594C204648
:1014100002F03CFE23685B68204657490C2298473F
:1014200020460021012202F045FE2968204604F0F2
:1014300081FB23685B68204650490222984729684F
:101440004F4E01EB8101204606EBC10104F000FB89
:1014500020460D21002202F02DFE2B6803EB8303B2
:1014600006EBC3062046716A04F064FB2A683D4B14
:101470001A7001223C4B1A702FE23B4B1B78002B59
:101480003ED0364B1C68E4B2002003F007FA8442D9
:1014900003D00020214603F017FAFFF7A7F9FFF762
:1014A0003DF904A8374904F0A1FB0E2003F082FBAC
:1014B000014608A804F0D6FB04A808A904F02EFCF5
:1014C000314904F035FC0446112003F073FB01465A
:1014D0000CA804F0C7FB20460CA904F01FFC014631
:1014E000224C204604F0B4FA204604F0D7FA0CA8A7
:1014F00004F030FB08A804F02DFB04A804F02AFB3C
:101500000022194B1A70154B1B6803EB83031C4A0E
:1015100002EBC3035B6A8C2B40F0B2810F4B1B685C
:101520001A4A12789A4240F0B881A9E10120214676
:1015300003F0CAF932E0094B1B68154A12789A4247
:1015400040F0BB812AE000BF8888FF1F142E0020D6
:1015500038A7FF1F08A7FF1F3CA7FF1F40A7FF1FBB
:1015600044A7FF1F9888FF1F9492FF1FB42F0020ED
:10157000D88B0000F80D0020F88B0000248B0000B1
:101580006497FF1F088C0000188C00001C2E0020A0
:10159000B892FF1F0220214603F096F99D4B19785F
:1015A00001EB81019C489D4B03EBC10104F0EAFB78
:1015B00000283AD1974B1D7805EB8505974B03EB37
:1015C000C505954C2046294604F024FB04F1100083
:1015D00005F1100104F01EFB2B6A23626B6A636243
:1015E00010A88F4904F002FB10A8214604F096FBD6
:1015F00001468C4D284604F02BFA284604F04EFA9A
:1016000010A804F0A7FA884D284600F099FFA268B8
:10161000204669460132002304F0DEFB2846834B56
:1016200019686A46012300F093FF814B197801EB9A
:1016300081018048794B03EBC10104F0A3FB002832
:101640003AD17B4B1D7805EB8505744B03EBC50543
:10165000784C2046294604F0DDFA04F1100005F12B
:10166000100104F0D7FA2B6A23626B6A636214A834
:10167000714904F0BBFA14A8214604F04FFB01465F
:10168000684D284604F0E4F9284604F007FA14A847
:1016900004F060FA694D284600F052FFA268204627
:1016A00069460132002304F097FB28465F4B196816
:1016B0006A46012300F04CFF614B1B68614A1268C7
:1016C000934237D05F4A136023B94FF400525E4B08
:1016D0001A6003E04FF400525C4B1A605C4E1AAC87
:1016E00006F108050FCD0FC40FCD0FC42B68236082
:1016F00033798DF86430574B1893474C23A8214613
:1017000004F092FA27A804F1100104F08DFA236A7C
:101710002B93636A2C9318A823A9494B1A78FFF7D7
:1017200001FC27A804F016FA23A804F013FA1022EB
:10173000494B1A60494B1B68494A126893422AD0A8
:10174000474A1360474E2FAC06F108050FCD0FC472
:101750000FCD0FC42B68236033798DF8B8303D4B23
:101760002D93344C38A8214604F05EFA3CA804F1CD
:10177000100104F059FA236A4093636A41932DA83B
:1017800038A9364B1A78FFF7CDFB3CA804F0E2F9F4
:1017900038A804F0DFF9344B1A68344B1B689A42BE
:1017A00020D042A8324904F021FA2F4C216846A8E3
:1017B0000A2204F06BFA42A846A904F0AFFA0146E7
:1017C000184D284604F044F9284604F067F946A865
:1017D00004F0C0F942A804F0BDF9FEF79FFF2268AB
:1017E000224B1A60204B1B688C2B02D1FFF7EAF8C2
:1017F00073E01D4B1B68B3F5527F6ED11D481E4927
:1018000004F0CEFA18B11D48FFF70EF965E0FFF7B6
:101810009BF862E0B892FF1FA80D00206497FF1F9D
:10182000288C0000B42F002014A7FF1F202E0020BA
:101830001C2E0020D00D0020388C0000C492FF1F09
:10184000142E00209088FF1F08F00F4004F00F4076
:101850000CA7FF1FE88A0000C8F00F4008A7FF1F71
:101860008C88FF1FBC92FF1F48A7FF1F4088FF1FE7
:10187000488C0000B80D0020388B00009892FF1FA4
:10188000174B1B6803EB8303164A02EBC3035B6A27
:10189000B3F5527F7FF482AE4DE6114B1C68E4B283
:1018A000114B1C704FF0FF32104B1A60012002F0F8
:1018B000F5FF84427FF43AAE70E6094B1C68E4B24F
:1018C0000B4B1C704FF0FF320A4B1A60022002F0E3
:1018D000E5FF84427FF45EAE60E64AB070BD00BFB3
:1018E00040A7FF1F6497FF1F1C2E00208C88FF1F3E
:1018F000B892FF1F9088FF1F38B505460C4690F838
:101900006034002B37D00B685B6808462B492622D1
:101910009847204604F0C2F895F86034202B08D18F
:1019200023685B68204626492F229847204604F00A
:10193000B5F895F86034002B3FD023685B682046EB
:10194000204910229847204695F860141022002361
:1019500004F0B4F823685B6820461B4903229847CB
:10196000204695F869141022002304F0A7F82046B9
:1019700004F094F838BDC3794BB90B685B6808462E
:1019800012491C229847204604F088F838BD90F888
:101990003C344BB90B685B6808460D491A229847DE
:1019A000204604F07BF838BD0B685B68084609499F
:1019B0000F229847204604F071F838BD648C00006F
:1019C0008C8C0000BC8C0000D08C0000D48C0000FB
:1019D000F48C0000108D000070B586B002F01AFF84
:1019E0000024009404230193052302930623039308
:1019F0000723049326483F210222012302F02CFCF6
:101A0000244BDC7183F83C4483F83D44642283F822
:101A1000602483F86A44204AC3F86C241F4B1C726C
:101A20005C721C711E4A1A601E4B1C725C721C7127
:101A30001A601D4E3046FEF765FE1C4D1C4C3046AC
:101A40002946224605F0BAFE1A4E3046FEF75AFEE7
:101A500030462946224605F0B1FE174C04F57A6659
:101A600000252046294604F0C1F804F1100029465B
:101A700004F0BCF82834B442F3D100200F490C4ADA
:101A800005F09CFE03F0F4F80D4B186006B070BD35
:101A9000F80D0020F092FF1F01100138BC92FF1FCB
:101AA000E88A00000CA7FF1FD00D00208D04000065
:101AB0003C88FF1FA80D00206497FF1FA1040000B1
:101AC00004A7FF1F2DE9F043C3B0AF4BDB6813F051
:101AD000807F09D1AC4BDA6842F08072DA60AB4BA0
:101AE0001A6842F001021A600025A94B1D60A94C3A
:101AF0002046102102222B4602F03CFC2046032106
:101B00002A4602F087FB2046012102F08FFB204687
:101B100002F0C6FA23685B6820469F490C2298476A
:101B20000320012103F054F80420012103F050F8B0
:101B30004FF40052994B1A600520012103F048F838
:101B40000620012103F044F81024954B1C600E2060
:101B5000022103F03DF82846022103F039F8012064
:101B6000022103F035F80220014603F031F828463F
:101B70008C49022202F028FF02208B49042202F045
:101B800023FF0E208949042202F01EFF11200221AA
:101B900003F01EF82046012103F01AF8844B1C1FA5
:101BA00003F10C09A846834F032654F8045FEDB2F5
:101BB0002846414603F00CF828463946324602F0E2
:101BC00003FF4C45F1D111207849042202F0FCFEBC
:101BD0000720022102F0FCFF0820022102F0F8FF9A
:101BE0000920022102F0F4FF734C07202146022253
:101BF00002F0EAFE08202146022202F0E5FE09205A
:101C00002146022202F0E0FE002002F069FD03F00E
:101C10009BFF4FF4FA6003F04DF8684803685B6877
:101C2000674917229847674901F58C6001F26C41BA
:101C30000A224FF0384301F0F3FB18B3614C04F56E
:101C40008C63236004F23C4000F07AFC20460121C2
:101C500001F092FA20B92046002101F08DFA88B1F6
:101C6000584901F23C4000F061FA034650B1554A30
:101C700092F83C2412F0700F1DBF5349534A116073
:101C80000023D3B9434C204602F00AFA23685B686C
:101C900020464F490F229847484C23685B682046EE
:101CA0004C4916229847204603F0F8FE4548214645
:101CB000FFF722FE04F01CF9FCE7404C23685B6848
:101CC0002046454914229847204603F0E7FE3E4847
:101CD000002100F055FB3C4E404F414CA0E006A8CF
:101CE0003946032206F0CCFC68B106A83D49032220
:101CF00006F0C6FC38B106A83B49032206F0C0FC3A
:101D0000002840F08D8004A8694600F0E7F9374DBF
:101D10002B7803EB830004EBC000694603F090FFCF
:101D20002B7803EB830304EBC30808F110081AA80F
:101D3000694603F05BFF1EA8694603F057FF16A82B
:101D40001AA9209A033A04F083F816A804F088F838
:101D50000146404603F05EFF16A803F0FBFE1EA8F6
:101D600003F0F8FE1AA803F0F5FE2B780B9A03EBAC
:101D7000830104EBC1010A62B2F50C3F38D10A4677
:101D80008C21516249E000BFF0ED00E0001000E05E
:101D9000041000E0F80D0020208D000008F00F4036
:101DA000C4F00F4045050000810500009D050000BE
:101DB000008B000039060000C5040000B42F00208D
:101DC000308D0000F092FF1F2C97FF1F202E002067
:101DD000488D0000588D0000708D00008C8B000035
:101DE0006497FF1F388B0000348B000044A7FF1F4F
:101DF00078498A4206D103EB830204EBC2028C21AC
:101E000051620AE074498A4203EB830204EBC20286
:101E10000CBF8C214FF45271516201336F4A137021
:101E2000304604A900F05EFA20283FF458AF6C4C0D
:101E300023685B6820466B490A229847204603F0D6
:101E40002DFE664B1B78002B66D0674D0026DFF811
:101E5000C091DFF8C0812046314603F06BFE0CA82C
:101E6000A5F1100103F0E0FE10A8294603F0DCFE06
:101E70002B6914936B69159322A8494603F0B6FEAB
:101E800022A80CA903F04AFF0146204603F0E0FD1A
:101E900022A803F05FFE26A8414603F0A7FE26A86D
:101EA00010A903F03BFF0146204603F0D1FD26A810
:101EB00003F050FE4D4F159B1F44384606F0B0FB13
:101EC000024623685B682046394698472AA8484955
:101ED00003F08CFE2EA814990A2203F0D7FE2AA83C
:101EE0002EA903F01BFF0146204603F0B1FD20465A
:101EF00003F0D4FD2EA803F02DFE2AA803F02AFE3D
:101F000010A803F027FE0CA803F024FE01362835A4
:101F1000324B1B78B3429EDC314C204603F0BEFDB1
:101F200002F0A6FE334B1968411A20460A2200230C
:101F300003F0C4FD204603F0B1FD002002F0AEFC2A
:101F40002D4F3860012002F0A9FC2C4E3070022089
:101F500002F0A4FC2A4D287032A82A4903F046FE5C
:101F6000396836A80A2203F091FE32A836A903F098
:101F7000D5FE254903F0DCFE07463AA8317803F088
:101F800071FE38463AA903F0C9FE204903F0D0FE9D
:101F900006463EA8297803F065FE30463EA903F0C8
:101FA000BDFE0146204603F053FD204603F076FDBA
:101FB0003EA803F0CFFD3AA803F0CCFD36A803F00D
:101FC000C9FD32A803F0C6FDFEF7DAFA43B0BDE85A
:101FD000F08300BF043002008030020044A7FF1FDE
:101FE000B42F0020888D00007497FF1F988D00008B
:101FF0005C8B000004A7FF1F40A7FF1F1C2E0020C2
:10200000B892FF1FA48D0000B08D0000B88D0000B5
:10201000A08B0000948D000008B5837863F07F03E7
:1020200083700246806852F8101F01F04FF808BD17
:102030002DE9F8430446037813F0200F30D14369AB
:102040001C4A93422ED8FFF7E7FF064678B3A068F4
:10205000216900F0D3FF8046A06824304146052264
:1020600000F0A8FF8146F8B100214FF4007205F09E
:102070001DFFA3681F79012F0DD90125186805EBF5
:1020800008014A4601F028FB80B10135EDB2A36892
:102090001F79BD42F2D3636903EB4723636106E016
:1020A000002604E0002602E0002600E00646304656
:1020B000BDE8F883FFFD1F0010B504460A4680689E
:1020C0002430A16900F076FF034628B1A08800F013
:1020D0000F0003EB401010BD002010BDF0B404460B
:1020E0000023082618464FF02E0C1027E25C202A09
:1020F00015D0DAB2082A04D1421C01F800C0D0B2CF
:102100003E46E25CA2F14105EDB2192D04D8257BD3
:102110002E421CBF2032D2B2451C0A54E8B2013311
:102120000B2BE3D100230B54F0BC704738B50446A9
:102130000D46037893B90021242205F0B7FEA5606F
:10214000EB79102B02D0202B03D009E02023237041
:1021500001E0402323700120A07038BD002038BD6D
:10216000002038BD2DE9F04F83B004468846009228
:102170000378002B00F0A680827812F0010F00F0A7
:10218000A18013F0080F08D0C2694369D31A009ADE
:102190009A4228BF1A4600920DE013F0200F0AD091
:1021A00083681A894369C3EB42139BB2009A9A422F
:1021B00028BF1A460092009B002B7FD01E464FF08E
:1021C000000A04F110020192D3466369C3F30807C1
:1021D000227812F0200F04D0A268126A02EB532971
:1021E00022E0A06890F805A00AEA532AB7B9BAF12C
:1021F000000F13D133B912F0400F14BF036A236AE2
:1022000023610BE02169019A00F0FEFE002859DBF2
:1022100020B9237813F0700F51D153E0A0682169E1
:1022200000F0ECFE00EB0A0937B9B6F5007F03D3E6
:10223000A068C36A994513D1C7F50075AE4238BF8F
:102240003546A068243049465A4600F0B3FE0146A0
:10225000002837D0404639442A4602F099F826E053
:10226000B6F5806F1BD3C6F34727227812F0200FF4
:1022700006D10279CAEB0202D2B2BA4238BF17467F
:102280007D02994502D83B44994522D3A36818683A
:10229000494642463B4601F0D7F940B912E0006892
:1022A0004946424601F084F960B14FF40075A844F4
:1022B00063692B446361761B87D100E0009E009B1D
:1022C000981B0CE0637843F0020363704FF0FF301B
:1022D00005E0243000F046FE0028D7D1F2E703B035
:1022E000BDE8F08F70B505460C46037813F0700F0B
:1022F0001ED0436913F01F0F1CD12026284621460B
:102300003246FFF72FFF83B219B2202904D00029EB
:1023100014BFFF20002010E023786BB1E52BEDD037
:102320002E2BEBD0E37A13F0080FE7D1C0B204E014
:10233000FF2002E0FF2000E0002040B270BD00BF9F
:1023400030B583B004464369C3F3431505B171B991
:1023500020460DF107010122FFF704FF40B20128DA
:1023600001D0002009E063691F33636101E020337D
:102370004361A068303000EB451003B030BD00BFB2
:102380002DE9F04104460E4607690378002B3CD046
:1023900042698A423DD011B90023036131E013F054
:1023A000080F03D0C1698E422FD808E013F0200F28
:1023B00005D083681B89B1EB431F26D821E0A168B3
:1023C0008D790935501EE84006F1FF3C2CFA05F5E1
:1023D000A84200D832B913F0400F14BF0B6A236A29
:1023E00023610AE02D1A08E0A0682169424600F046
:1023F0000BFE013D002802DC07E004F11008002D6F
:10240000F2D166610120BDE8F08127610020BDE8BE
:10241000F0810120BDE8F081F8B504460E4615466E
:102420001F460021242205F041FDB068A060A58070
:10243000336AE36000F1300305F00F0203EB421250
:10244000D37A13F0080F34D103F017032370D17A35
:1024500011F0180F04BF43F0080323709DF81830E3
:10246000E37017F0320F03D0237813F0110F20D14F
:1024700007F00F03A370C36AA361918A538B43EAE9
:10248000014117F0100F08D011B100F055FE80B1D6
:10249000A37863F07F03A37002E02162D369E36154
:1024A00017F0200F09D02046E169FFF769FF0346C6
:1024B00020B900202070034600E001231846F8BD33
:1024C00038B504460378002B34D090F90230002B45
:1024D0001EDA0121FFF7F0FD054628B30378E52B4E
:1024E00022D0237813F0080F1CBFE369C361238C4B
:1024F0004383638C8382114B1B682BB1183005F129
:10250000160198472B8B6B82A37803F07F03A3708F
:10251000A56805F1240000F025FD28B105F50C7033
:1025200000F020FD034630B9637843F00103637087
:10253000002300E00123184638BD00BF242E0020F0
:1025400010B50446FFF7BCFF0023237010BD00BF89
:102550002DE9F04192B006460C46019298460023C0
:102560008DF824308DF825300378002B44D10B787A
:1025700013F0700F42D0134612782F2A14D1013372
:10258000019313F8012B2F2AFAD02AB93046A168FB
:10259000FFF7CCFD024632E009A8A168FFF7C6FDAF
:1025A000024600282BD009AC0127019803A901AAF3
:1025B00000F03CF9024610B3019A1378A3B13046FB
:1025C000214603AA3B4600F0D3FA0246B8B109AC53
:1025D00035460FCD0FC40FCD0FC42B682360304696
:1025E000FFF7AEFF09ACE0E73046214603AA4346B9
:1025F00000F0BEFA024602E0002200E0002210468F
:1026000012B0BDE8F08100BF2DE9F84F04468846BE
:102610009246037813F0080F00F0B780837813F028
:10262000020F00F0B28013F0040F05D0E169FFF74C
:10263000A7FE002800F0A9806369DB439A4500F2F9
:10264000A480BAF1000F00F0848056464FF00109D3
:102650004FF0050BA06863694579C3F3080715EAD5
:10266000532521D1002F40F09880216981B104F1D8
:10267000100200F0C9FC0028C0F28780002840F05A
:1026800091802046FFF7C8FC002840F08B807CE05A
:10269000236A3BB92046FFF7BFFC002875D02369A9
:1026A00023627FE023617DE0216900F0A7FC4119EE
:1026B000002F40F08880B6F5007F79D317E04A46B6
:1026C00000E05A46A068243000F074FC00285CD07A
:1026D000384441462A4601F05BFE2F44B7F5007F9F
:1026E00031D1A068243000F03DFC60BB4DE0B6F570
:1026F000806F16D3A26813795D1BEDB2C6F3472332
:10270000AB4228BF2B465D02D06A884202D31844F0
:1027100088425ED8A2681068424601F043F890B93A
:1027200033E0A368DA6A914205D1002283F82420BD
:102730004FF0FF32DA62A3681868424600F0CCFF1F
:1027400018B34FF4007563692B446361A844761B8A
:1027500080D16369E269934205D9E361A37863F0AC
:102760007F03A37006E01E4B1B681BB1A37863F0C8
:102770007F03A370A37813F0080F03D02046FFF760
:102780009FFE10B15046BDE8F88F637843F0010317
:1027900063704FF0FF30BDE8F88F216900F02EFC28
:1027A000014610E0A068216900F028FC014682E79C
:1027B000C7F50075AE4238BF35466269E3699A4293
:1027C000BFF47FAF7BE7C7F50075AE4238BF354633
:1027D00075E7002082F824004FF0FF30D06299E7BF
:1027E000242E0020042904D800EB4101B1F8010097
:1027F00070470A2904D8013900EB4100C0887047AE
:1028000010299DBF013100EB4100808800207047F6
:1028100000231A46510841EAC212C15C51FA82F201
:10282000D2B201330B2BF5D1104670472DE9F00FD2
:1028300082B00378202B05D1431C1846013304785D
:10284000202CFAD08860037823B12F2B04D00546C2
:10285000002407E0002400E0002407193B4622E0A2
:102860002F2BFAD05C2B00F0FA8003F0F706222E13
:1028700000F0F7803A2B00F0F68003F0BF063C2E04
:1028800000F0F380A3F13E06F6B2012E40F2EF8095
:10289000203BDBB25E2B00F2EC80013415F8013FE7
:1028A000002BDDD1D9E71E4613F8015B202DFAD0AD
:1028B0002F2DF8D0166074B13A4612F8013D2E2B38
:1028C00001D0202B02D1013CF7D104E0FF2CC8BF7E
:1028D000002000F3DF804C6000232025CA185573C8
:1028E00001330B2BFAD1002300E00133C25C2E2A06
:1028F000FBD0202AF9D01E46D3F1010738BF0027AC
:10290000651E06D4425D2E2A03D0013DB5F1FF3F7E
:1029100005D1A64207DB00200190009087E0425DD0
:102920002E2AF2D1F5E74FF007090026019600960E
:102930004FF0080AB446AB46C25C202A66D02E2A65
:1029400002D19D4264D122E0222A20D07C2A1ED0CE
:10295000A2F12A085FFA88F8B8F1050F02D82D2AEB
:1029600015D10DE0A2F13A085FFA88F8B8F1050F29
:102970000DD9A2F15B085FFA88F8B8F1020F06D909
:10298000A2F121085FFA88F8B8F15D0F02D9AB42D5
:1029900003D178E0AB4202D175E067465F224E4535
:1029A0006DD809E0AB4241DC5B464FF00A090826CE
:1029B0004FF0100A674635E0A2F161085FFA88F827
:1029C000B8F1190F08D8203AD2B2DDF8008048EAF1
:1029D0000A08CDF800800CE0A2F141085FFA88F8FF
:1029E000B8F1190F05D8DDF8048048EA0A08CDF8D7
:1029F000048006F101085FFA88F80E447273B8F19A
:102A0000060F07D881F80C8046460BE0674609E0C0
:102A1000674607E0464605E05B464FF00A09082690
:102A20004FF0100A0133A34286DB00E000274B7B06
:102A3000202B20D057B10198009A00EA0203002B06
:102A4000134618BF02230B70012023E001200870F9
:102A50000B7B19447E234B7331238B731AE00020C8
:102A600018E0002016E0002014E0002012E0002012
:102A700010E000200EE000200CE000200AE0B9F198
:102A80000A0F8FD102E0B9F10A0FC5D14B7B202B81
:102A9000DCD1F2E702B0BDE8F00F70472DE9F84F46
:102AA00004460F460E7B4FF002094FF07E0A01F1FB
:102AB0000D085FFA89F3012B03D8BA1930339373E9
:102AC00024E0796809EB01039BB2B86849B102467A
:102AD000084412F8011B03EB43134B409BB28242A4
:102AE000F7D1032E28BF0326321DD2B2B2420DD930
:102AF00003F00F011046092994BF303137313844B3
:102B000041731B09013AD2B2B242F1D8BB1983F822
:102B10000DA020460021FFF733FC01254FF00B0BE1
:102B200020462946FFF70CFC014630B96078D0F109
:102B3000010038BF0020BDE8F88F037853B1C37A95
:102B400013F0080FECD140465A4605F01BF9002857
:102B5000E6D105E00120BDE8F88F0020BDE8F88F40
:102B600009F101091FFA89F9B9F1640FA1D1F4E75C
:102B70002DE9F04F8FB009900E4605920A935168E7
:102B80000491337813F0700F00F0D5810378002B97
:102B900040F0D381137813F0030F09D001F10C0238
:102BA0007F4BA3FB02139B0801335FFA83FA01E01A
:102BB0004FF0010A30460021FFF7E2FB00270B9798
:102BC00006973C46B84608974FF0010B059A0D3220
:102BD000079220E04FF000081DE04FF000081AE0D7
:102BE0004FF0000817E006934FF0000813E04FF095
:102BF000000810E0039C4FF000080CE0039C4FF02D
:102C0000000808E04FF0000805E0CDF820B002E031
:102C1000DDF83480039C7369C3F34F19304659467D
:102C2000FFF78EFB054620B97378002B00F09B80E0
:102C300085E10378E52B00D043B9002C08BF4F464F
:102C400054453CBF0134E4B223B98CE0544538BF4D
:102C5000002401E0E52BBDD02E2BBED0EA7A0F2A4E
:102C60005AD1B8F1000F09D113F0400FD3D003F0BF
:102C70001F086B7B0B93CDF818800AE006994A1E5B
:102C8000D2B206929342ABD16A7B0B998A42AAD107
:102C90000693069A531E03EB430203EB8202039250
:102CA0009146049B9342A2D902F10D010C91CDF8FB
:102CB0003480904603940C46C8EB09012846C9B2FB
:102CC000FFF790FD049A914507D1DDF83480039C0D
:102CD000002818BF4FF000089DE7FF288AD8C0B22F
:102CE000A0F14103DBB2192B9CBF2030C0B209F127
:102CF000010305998A6812F80920A2F14101C9B2BD
:102D000019299CBF2032D2B290427FF477AFA34200
:102D10003FF47EAF9946CFE712F0080F7FF472AF11
:102D2000B8F1000F0BD0069A012A40F00A8128461C
:102D3000FFF76EFD0B9B98420FD000230CE1284655
:102D400007990B2205F01EF800287FF464AF05995F
:102D50000B7813F0010F7FF458AF0A9A12F0800F2E
:102D600000F0DF80EFE00A9901F04203422B40F0CF
:102D7000EC80002C18BFB946544522D200253046BD
:102D80002946FFF7DDFA30B97378002B40F0DF8079
:102D9000544507D315E00134E4B2A245EFD810E062
:102DA0004FECC44E3046FFF743F90346002800F0CD
:102DB000D380B3681B79012B03D81034E4B2A24549
:102DC000F0D8089A3AB130460599FFF767FE0346F6
:102DD000002800F0C18030464FEA4911FFF7D0FAD1
:102DE0000346002800F0B8800AF1FF3818F0FF0809
:102DF0005DD04746002548F0400A049CDDF814B039
:102E0000CDF810A030462946FFF79AFA81460028EF
:102E100000F09F80B36893F8242042F0010283F809
:102E200024204745DDF810A018BFBA4680F800A05E
:102E30000F23C37205730BF10D00FFF7E9FC89F84E
:102E40000D0089F81A5089F81B50DBF808100AF0B9
:102E50001F0A0AF1FF3A0AEB4A0E0AEB8E0E72467F
:102E60002B468E44A24202D21EF8030004E0A01AB0
:102E700018BF6FF0000080B2D9B2042904D809EB62
:102E80004301A1F801000AE00A2903D809EB430134
:102E9000888004E010299CBF09EB4301C8800133FE
:102EA00001320D2BDED1013F17F0FF07AAD1736964
:102EB000C3F34F1930460021FFF742FA04460028B9
:102EC00049D00021202204F0F1FF059B53F80D1F8B
:102ED0005A68216062601A899B7A2281A3720599DF
:102EE0000B7803F0180323731D4B1B682BB104F1FF
:102EF000100004F10E01984707E0212323742823D2
:102F000063740023A3730823E373238A63822383F8
:102F1000E389E382B36893F8242042F0010283F846
:102F20002420CDF80080099831464A460A9BFFF7D5
:102F300073FA034610E000230EE000230CE00023A8
:102F40000AE0002308E0002306E0002304E0002359
:102F500002E0002300E0002318460FB0BDE8F08F28
:102F6000242E002070B50446037813F0010F1BD007
:102F700000F10C0643681868A168324600F0ACFB0B
:102F80000546A0B1237813F0020F08D063681969D1
:102F9000A26818681144324600F09EFB30B12378D5
:102FA00023F00103237002E0012500E005462846D6
:102FB00070BD00BF70B504460D46164683688B424F
:102FC00010D0FFF7CFFFA8B116F0040F07D1636848
:102FD0001868294604F10C0200F0EAFA60B10023F7
:102FE0002370A56006F0030623781E43204600F8F0
:102FF0000C6B70BD002070BD002070BD023983795C
:10300000994040690844704770B504460D4616461D
:10301000C379202B0FD1816900F50C7001EBD5111C
:103020000222FFF7C7FFD8B105F07F0550F8253021
:1030300023F070430EE0102B14D1C1F307218369F4
:1030400000F50C7019440222FFF7B4FF60B1EDB235
:1030500030F81530E1698B4208D83360012006E072
:10306000FF2004E0FF2002E0FF2000E0002040B24B
:1030700070BD00BF38B50C461546C379202B0ED164
:10308000816900F50C7001EBD4110322FFF792FF68
:10309000B0B104F07F0440F82450012038BD102B5B
:1030A00010D1C1F30721836900F50C701944032284
:1030B000FFF780FF40B1E4B220F81450012038BD82
:1030C000002038BD002038BD002038BD2DE9F0417A
:1030D00082B0054690460F4609B9C66800E00E4624
:1030E00034460134EB699C4288BF022428462146BD
:1030F00001AAFFF789FF002804DB08B1019B1BB17F
:10310000B442EED1002613E0284621466FF070420B
:10311000FFF7B0FF064658B13FB128463946224670
:10312000FFF7A8FF10B9064602E0EC60C8F80040BF
:10313000304602B0BDE8F081F0B583B005460C46DC
:1031400000272846214601AAFFF75EFF061E0EDB78
:10315000284621463A46FFF78DFF014640B1EB680D
:103160009C4238BFEC60019C002EEAD100E00021B7
:10317000084603B0F0BD00BF38B504460023C37154
:103180000122C260A06280F824304FF0FF32C26298
:10319000C4F8340280F83032C0F838220D46A9B1A4
:1031A000042971D8243019461A46FFF703FF002876
:1031B0006CD000EB051595F8AE3105F5D47513F01C
:1031C0007F0F65D1D5F80E500DB963E0002504F1ED
:1031D000240029460022FFF7EDFE034600285BD0BD
:1031E000B0F80B20B2F5007F58D1027C022A57D1EB
:1031F000C289002A56D0407B2071421E6271002293
:10320000A27101280DD01146012203E012B9A1716B
:10321000002038BD5200D2B20131C9B29042F5D17E
:10322000A171D98A01B9596A2161DA892A44A26156
:10323000B3F81100208102EB41022262B3F81110B1
:10324000490101F2FF1102EB61226261B3F8131030
:1032500001B9196AAA1A1144A27921FA02F2511C81
:10326000E16140F6F4718A4203D80C23E371002037
:1032700038BD4FF6F4718A4291BF1023DB6A236296
:103280002023E371012038BD002038BD002038BD67
:10329000002038BD002038BD002038BD002038BDDA
:1032A000002038BD002038BD10B50446037A4BB964
:1032B000406800F093FA63681879002101F056FC29
:1032C0000123237210BD00BF10B50446037A6BB111
:1032D00043681879012101F049FC6068FF2100F082
:1032E00067FB606800F0D6FA0023237210BD00BFB0
:1032F0002DE9F04182B00446884617461A4B1B68F8
:103300000093009D184EADB20AE033680193019B13
:103310009BB25B1BB3F5967F02DD542323701CE048
:10332000606800F0DFFA6072FF28EED0FE2802D05D
:103330005023237011E0606841463A4600F0E6FAF7
:10334000607210B16023237007E0606800F0CAFA71
:10335000606800F0C7FA012003E02046FFF7B4FFE1
:10336000002002B0BDE8F081B42E0020F0B583B09B
:1033700004460F460B4B1B680093009D094EADB2EF
:1033800006E033680193019B9BB25B1BBB4206DCEA
:10339000606800F0A7FAFF28F3D1012000E00020C8
:1033A00003B0F0BDB42E0020F0B583B004460F4644
:1033B0000192037A0BB9FFF777FF20464FF416719D
:1033C000FFF7D4FF606847F0400100F0F1FA0DF11B
:1033D00007050DF10306606815F8011900F0E8FA19
:1033E000B542F8D1AFB16068872100F0E1FA0C2F47
:1033F00002D1606800F076FA0025606800F072FA89
:10340000607210F0800F09D00135B5F5807FF4D1DE
:1034100004E06068952100F0CBFAEDE703B0F0BD61
:103420002DE9F04784B004469A46002303720370E6
:10343000837241605C4B1B680093009E08461146F6
:1034400000F01AFA6368594A1A602046FFF72CFF09
:1034500063681879012101F089FB0A25FF2760685C
:10346000394600F0A5FA6B1E13F0FF05F7D163682B
:103470001879002101F07AFB0025DFF82C81B7B222
:103480000BE0D8F800300193019B9BB2DB1BB3F536
:10349000FA6F02DD2023237074E0204629462A4675
:1034A000FFF782FF0128ECD14FF008084FF4D577E1
:1034B000DFF8F490204641463A46FFF775FF0528AD
:1034C00002D10123A3721AE00425606800F00AFA11
:1034D0006072013D15F0FF05F7D1AA2802D1022341
:1034E000A3720CE0D9F800300293029B9BB2B2B2F7
:1034F0009B1AB3F5FA6FDDDD2523237042E0A37A32
:10350000022B14BF4FF000084FF0804837270025EA
:10351000DFF894900CE0D9F800300393039B9BB242
:10352000B2B29B1AB3F5FA6F02DD4323237029E090
:10353000204639462A46FFF737FF204629214246D2
:10354000FFF732FF0028E6D1A37A022B12D12046E2
:103550003A210022FFF728FF10B13723237011E032
:10356000606800F0BFF900F0C000C0280FD103234D
:10357000A3720CE02046FFF7A7FE6368C3F800A023
:1035800001200EE02046FFF79FFE002009E0606862
:1035900000F0A8F9606800F0A5F9606800F0A2F9F1
:1035A000E8E704B0BDE8F087B42E002006500138EB
:1035B00038B504460B461546807A032818BF4B02DF
:1035C000204611211A46FFF7EFFE10B13023237079
:1035D0000BE0204629464FF40072FFF789FE0546AE
:1035E00018B12046FFF770FE03E02046FFF76CFE9F
:1035F0000025284638BD00BF10B504460A46837A28
:10360000032B18BF4A021221FFF7CEFE30B131233F
:1036100023702046FFF758FE002010BD012010BD8A
:1036200010B504460C210022FFF7BEFE30B128235E
:1036300023702046FFF748FE002010BD2046FFF70C
:1036400043FE012010BD00BF2DE9F041064614469F
:103650001F46FFF7D1FF0146A0B17FB100254FF40F
:103660000078304621464246FFF742FE014648B107
:103670000135ADB204F50074BD42F2D33046FFF718
:10368000CFFF01460846BDE8F08100BF38B50446CB
:103690001546406800F08CF9606829464FF40072C6
:1036A00000F096F96068FF2100F082F96068FF2160
:1036B00000F07EF9606800F015F9607200F01F00FC
:1036C000052806D0562323702046FFF7FDFD002075
:1036D00038BD012038BD00BF38B504460B4615463D
:1036E000817A032918BF5B0218211A46FFF75CFE96
:1036F00010B1322323700AE02046FE212A46FFF74C
:10370000C5FF054618B12046FFF7DEFD03E0204661
:10371000FFF7DAFD0025284638BD00BF38B504465E
:103720000D464FF41671FFF721FE10B9592323708F
:1037300006E02046FC212A46FFF7A8FF034618B9F9
:103740002046FFF7C1FD0023184638BD10B50446DA
:103750000A46837A032B18BF4A021921FFF724FE79
:1037600030B1332323702046FFF7AEFD002010BD9B
:10377000012010BD38B504464FF41671FFF7F6FD71
:10378000054638B16068FD2100F012F92046FFF7C8
:103790009BFD04E0552323702046FFF795FD284646
:1037A00038BD00BFF8B5064614461F46FFF7CEFFEA
:1037B00078B157B1002530462146FFF7AFFF40B141
:1037C000013504F50074BD42F5D13046FFF7D2FF54
:1037D000F8BD3046FFF778FD0020F8BD02681D4BAC
:1037E0001B78002B28D072B61A4B1B7813F0010FF0
:1037F00007D0194B18681949096801401848016039
:103800001960144B1B7813F0020F07D0154B186882
:103810001249496801401248416019600D4B1B78FC
:1038200013F0040F07D0104B18680C498968014049
:103830000B488160196062B60C4BDB68934208D07C
:103840000A4B0B491960DA6042F080421A61094A5A
:103850001A607047402E002080E100E0282E0020F2
:10386000342E002084E100E088E100E000C0024046
:1038700001401F0000001F8010B50446017108467A
:10388000012101F0A5F92079012101F06FF900F083
:10389000E9F810BD0E4B1B78C3B113F0010F03D034
:1038A0000C4B1A680C4B1A60094B1B7813F0020F73
:1038B00003D0084B5A68094B1A60054B1B7813F06C
:1038C000040F03D0034B9A68054B1A60704700BF82
:1038D000402E0020342E002000E100E004E100E052
:1038E00008E100E0084B1A6842F480621A604FF069
:1038F0000042DA62FF225A631A46D36A002BFCDACE
:10390000014B986BC0B2704700C00240F8B50E463C
:103910001546244A244B1A6015F0010F05D04C1CA3
:10392000FFF7E0FF3070013D2646052D04D9032145
:1039300000231D4C1D4802E06908F9D103E06063D3
:1039400001338B42FBDBA5EB41053544AE4215D27A
:103950003046154A154FD36A13F0F00FFBD057636A
:10396000936BC3F307240470437002308542F2D88E
:10397000F3432B4423F0010302331E4405EB4105BE
:10398000B5420DD93146084AD36A13F0F00FFBD087
:10399000936BC3F3072008704B7002318D42F3D84C
:1039A0000020F8BD00041F8000C00240FFFF00900F
:1039B000064B1A6842F480621A604FF00042DA62E5
:1039C00059631A46D36A002BFCDA704700C00240E4
:1039D000F8B51446214A224B1A6014F0010F05D0A5
:1039E0004D1C0978FFF7E4FF013C2946052C2DD832
:1039F0000D1960082CD10DE0194613F8026C13F86C
:103A0000014C44EA062444F010447C630132023342
:103A10009042F1DC8D420FD9114A0C784B7843EA81
:103A20000424D36A13F0F00FFBD044F01043536327
:103A3000936B02318D42F0D870B1094AD36A13F00A
:103A4000F00FFBD0936B0138F8D1F8BD0D190320AE
:103A50008B1C0022024FCFE7F8BD00BF00041F807F
:103A600000C00240184B1A6842F480521A60174B8B
:103A7000174A1A60174ADA6002F180421A61164A40
:103A80001A60164B1B7813F0010F07BF4FF410722A
:103A9000134B4FF40072134B1A60104B1B7813F04A
:103AA000020F4FF400720CBF0F4B104B1A600B4B00
:103AB0001B7813F0040F07BF4FF410720C4B4FF438
:103AC00000720C4B1A6070473C80044000C00240FA
:103AD00001401F000110003800001F80B02F00209F
:103AE00018B0044008C004401CB004400CC004409E
:103AF00014B0044004C00440044BD878C0B2044B56
:103B00001B6898421CBF024B18607047006006405B
:103B10009C88FF1F0B4B1B7813B90B4B1B7873B1A1
:103B20000A4B1B78202B03D9012303710020704717
:103B3000581C064A1070064AD154012070470020D4
:103B4000704700BFAA2E00206C2E0020AB2E002054
:103B5000482E0020704700BF024B1878024B1B789C
:103B6000C01A7047A92E0020A82E0020074B1B78F2
:103B7000074A12789A4205D9591C044A1170054A1D
:103B8000D05C70474FF0FF30704700BFA82E002078
:103B9000A92E0020702E0020054B1B78054A1278B4
:103BA0009A4286BF044AD05C4FF0FF30704700BF96
:103BB000A82E0020A92E0020702E002008B5104B42
:103BC000DB7813F0200F0CD1122000F075FF0D4BA5
:103BD0001B689BB100210C4A11700C4A1078984761
:103BE00008BD0B4A13780133DBB21370012B02D8E6
:103BF000084B1B7813B9122000F05EFF08BD00BF10
:103C000000600640442E0020A82E0020A92E00208F
:103C1000942E00206C2E002038B514460D4B1B78D6
:103C200013B90D4B1B7893B10C4B1D78C5F12103D3
:103C3000A34202D2012202711C46094828442246AE
:103C400000F0A6FB2544054B1D70204638BD002022
:103C500038BD00BFAA2E00206C2E0020AB2E002005
:103C6000482E0020002202714FF47A7181600273A5
:103C7000014A0260704700BFC88D00000B4B1B68F3
:103C800013F0400F10D00A4B994203D82722094B5A
:103C90005A7006E0084B994294BF1A220D22054B38
:103CA0005A700422034B9A71704700BF348004405D
:103CB0007F1A0600006006403F420F0008B500234F
:103CC000174A1370174A116841F040011160164AF3
:103CD0009370164B1B78122B04D14FF41972144BAE
:103CE0001A6005E0112B03D14FF41972114B1A60C1
:103CF000114B1B78132B04D14FF419720F4B1A6020
:103D000005E0102B03D14FF419720D4B1A600D49C9
:103D1000FFF7B4FF044B20225A7180229A7008BD2D
:103D20006C2E002034800440006006409988FF1FFC
:103D30000CA0044004A00440A088FF1F08A0044079
:103D400000A00440A086010008B53D4BDB78DBB243
:103D500013F0100F06D01021394AD17013F0400F24
:103D600003D108BD13F0400F2CD013F0040F1BD06B
:103D70000023344A1370344A1370344B1B681BB150
:103D80009847314B1B782BB901222F4B1A70002218
:103D90002F4B1A702A4BD0229A702D4A12781A7122
:103DA00001222C4B1A7009E00122264B1A700022C6
:103DB000294B1A70224BC0229A701B790222204B89
:103DC000DA7008BD1E4A927812F0100F1CD013F062
:103DD000010F14D11F4B1B781B4A12789A4207D946
:103DE000591C1C4A11701A4AD25C154B1A7102E018
:103DF0000022134B1A71D022114B9A701BE0104B0A
:103E0000C0229A701B7916E00022144B1A701220FF
:103E10001349032200F0D8FD094B1B79DAB20E4B8F
:103E20001B781F2B07D80749097821B1581C0A496C
:103E300008700C49CA540222014BDA7008BD00BF59
:103E400000600640412E0020AB2E0020902E002066
:103E5000482E0020AC2E0020A92E0020942E0020F9
:103E6000BD3B0000702E00204900044B1970012357
:103E7000034A1370034A1370704700BF482E002096
:103E8000AA2E0020AB2E00202DE9F04182B08846FA
:103E9000374B1222DA709B7813F0200F03D0B42234
:103EA000334B9A701DE0334B1B680093009D314CDF
:103EB0000CE023680193019B5B1B0F2B06D92C4B55
:103EC00000229A7080229A7004204EE0FFF714FEC0
:103ED00010F0200FEDD10022274B1A70B022244B96
:103EE0009A70FFF709FE10F0200FFAD0234B1B78D1
:103EF0007BB30024224E1E4D204F335D2B71FFF704
:103F0000FBFD10F0020F02D110F0200FF7D10223B9
:103F1000EB70FFF7F1FD10F0100F04D08022144B6E
:103F20009A70042018E010F0200F04D18022104B6A
:103F30009A70042010E010F0010F04D0002C0CBF88
:103F4000022003200BE00134E4B23B78A342D4D832
:103F500001E0002000E00020B8F1000F02D0802234
:103F6000034B9A700022074B1A7002B0BDE8F08133
:103F700000600640B42E00206C2E0020AB2E0020E6
:103F8000482E0020AA2E002008B50121FFF77CFF53
:103F900008BD00BF08B50248FFF764FE08BD00BFBA
:103FA000982E002000228270FF2141700270C270A2
:103FB000704700BFC3782BB111B9FF23437070471E
:103FC00000234370704700BF10B5064C2046FFF732
:103FD0004BFF2046FFF7D8FFD0F1010038BF00208B
:103FE00010BD00BF982E002010B504468170074810
:103FF000FFF764FE2046A178FFF7E6FFE07018B1F6
:104000000248FFF7B3FD2070E07810BD982E002025
:1040100038B50446C37883B1437821EA03010170BF
:10402000094D2846A178FFF71FFF28462178FFF7A2
:1040300071FD2846FFF7A8FF00E00020D0F1010045
:1040400038BF002038BD00BF982E0020704700BF49
:10405000704700BF08B503685B69012298470120DB
:1040600008BD00BF00220271014A0260704700BF14
:10407000F08D000008B503681B69FF21984708BD53
:1040800008B503685B690022984708BD08B501219F
:10409000FFF7F6FF4FF47A43013B7FF4FDAF08BD15
:1040A00008B50221FFF7ECFF4FF47A43013B7FF4A0
:1040B000FDAF08BD10B582B00446104B53F8040B99
:1040C000009018680190237A93429CBF03F1FF325D
:1040D000D2B2208941F20403984202AB1A440CBFC9
:1040E00012F8043C12F8083C194461F07F012046A4
:1040F000C9B2FFF7C5FF02B010BD00BFE08D0000E0
:1041000008B5817941F00402827141F00C01FFF79A
:10411000B7FF08BD38B50446012A03D9407940F0FD
:1041200008006071227261722BB1012A03D1637998
:1041300043F004036371642000F0BCFD617911F069
:10414000100F29D123685B6920460321022298477A
:104150002F4B013B7FF4FDAF23685B6920460321B1
:10416000022298474FF496552B46013B7FF4FDAF52
:1041700023685B6920460321022298472B46013BB6
:104180007FF4FDAF23685B69204602210A46984709
:10419000013D7FF4FDAF1DE0204641F02001FFF717
:1041A0006FFF1B4B013B7FF4FDAF6179204641F06F
:1041B0002001FFF765FF4FF496552B46013B7FF436
:1041C000FDAF6179204641F02001FFF759FF013D25
:1041D0007FF4FDAF6179204641F02001FFF750FFE9
:1041E0004FF4F063013B7FF4FDAF0423A37120463D
:1041F000FFF786FF2046FFF749FF0223E3712046C1
:104200000621FFF73DFF2046FFF734FF38BD00BF12
:104210008032020010B5012404FA01F101738272A8
:1042200003681B690021984710BD00BF08B503460D
:10423000027B7AB1807A08B919B904E0012802D169
:1042400009B95A7301E000225A7303F10E00597B39
:10425000FFF7DEFE08BD00BFF8B504460F46164660
:104260001D46FFF7FFFE2046154B40F80E3BFFF7BB
:1042700099FEE772002121736173A172012101FA95
:1042800006F6A67401FA05F5E5749DF8183001FAF2
:1042900003F323759DF81C3001FA03F363759DF851
:1042A000203001FA03F3A3759DF8243001FA03F3DB
:1042B000E3759DF82830994021762046F8BD00BF6F
:1042C000108E000038B5044600F10E052846E17A4C
:1042D000FFF78AFE01280AD128460121FFF76AFE6E
:1042E000002161712846FFF793FE012038BD0020B0
:1042F00038BD00BF70B504460D4600F10E06817C46
:1043000030462943FFF784FEA17C304625EA0101AF
:10431000FFF77EFE70BD00BF38B500231C4611F0CC
:10432000010F02D0C5186D7D2C4349080133042BC1
:10433000F5D1012A08BF027D437B44EA0301114302
:10434000FFF7D8FF38BD00BF70B506460D461446CE
:10435000022A05D101F00F010022FFF7DDFF70BD39
:104360000909FFF7D9FF304605F00F012246FFF794
:10437000D3FF70BDF8B507460E4615461C46FFF73D
:10438000A1FF384631462A462346FFF7C3FEF8BD53
:10439000844641EA000313F003036DD1403A41D350
:1043A00051F8043B40F8043B51F8043B40F8043B0F
:1043B00051F8043B40F8043B51F8043B40F8043BFF
:1043C00051F8043B40F8043B51F8043B40F8043BEF
:1043D00051F8043B40F8043B51F8043B40F8043BDF
:1043E00051F8043B40F8043B51F8043B40F8043BCF
:1043F00051F8043B40F8043B51F8043B40F8043BBF
:1044000051F8043B40F8043B51F8043B40F8043BAE
:1044100051F8043B40F8043B51F8043B40F8043B9E
:10442000403ABDD2303211D351F8043B40F8043B3E
:1044300051F8043B40F8043B51F8043B40F8043B7E
:1044400051F8043B40F8043B103AEDD20C3205D34E
:1044500051F8043B40F8043B043AF9D2043208D046
:10446000D2071CBF11F8013B00F8013B01D30B88B8
:1044700003806046704700BF082A13D38B078DD096
:1044800010F003038AD0C3F10403D21ADB071CBF68
:1044900011F8013B00F8013B80D331F8023B20F8D2
:1044A000023B7BE7043AD9D3013A11F8013B00F80B
:1044B000013BF9D20B7803704B7843708B78837093
:1044C0006046704730B4394A3949136813F0800F99
:1044D000FBD10B6813F0800FF7D172B6354B1B7808
:1044E000002B5FD0344B1C6804331D6804331868FC
:1044F0000433196804331A6804331B682C442044BD
:1045000001440A441A44C2F34E0242F400422B4BC7
:104510001A602C331C6804331D6804331868043394
:10452000196804331A6804331B682C44204401447E
:104530000A441A44C2F34E0242F40042204B1A606D
:1045400003F108131C6804331D680433186804332E
:10455000196804331A6804331B682C44204401444E
:104560000A441A44C2F34E0242F40042154B1A6048
:104570002C331C6804331D6804331868043319682D
:1045800004331A6804331B682C44204401440A4451
:104590001A44C2F34E0242F400420B4B1A6000224E
:1045A000044B1A7062B630BC704700BF24B00340A1
:1045B00024B00B40AE2E002038B003402CB0034096
:1045C00030B003402CB00B4030B00B4060223A4B6F
:1045D0001A70E12201331A70384B1B78082B10D166
:1045E000012203F1804303F56C331A60132334492D
:1045F0000B6001F5FF2101F2FC710A60314A136082
:104600001FE00A2B0DD139222F4B1A6013232C499E
:104610000B6001F5FF2101F2FC710A60294A136069
:104620000FE00C2B0CBF35223D22274B1A601223C2
:1046300023490B6001F5FF2101F2FC710A60214A58
:104640001360224B1B7833B10123214A136002F51A
:104650000022136005E000231D4A136002F50022CA
:1046600013601C4B1B78012B06D880231A4A136059
:1046700002F5002213601AE0042B06D88423164AA0
:10468000136002F50022136011E0082B06D8852381
:10469000114A136002F50022136008E0102B94BF4A
:1046A000862387230C4A136002F50022136001223F
:1046B0000A4B1A70704700BF00400740A188FF1FD7
:1046C0000CB003400CB00B4008B00340B12E0020EA
:1046D00020B00340A288FF1F24B00340AE2E00206C
:1046E0002DE9F843282873D83C4B1E5CFF2E72D06E
:1046F0003B4B1B780BB1FFF7E5FE16F0800F29D17D
:1047000072B6384C384D4FF0010726602F7062B6F4
:1047100072B6236813F0800F04D12B7813F0FF0FCB
:104720000FD1F2E7314B186800222F4B1A7062B696
:104730002F4B1B781841BDE8F8832B7813F0FF0F3F
:10474000E3D062B601F0D4FB72B6236813F0800F99
:10475000F3D0E7E772B606F040095FFA89F9254F12
:10476000254C06F03F06254D4FF00108B9F1000F2A
:1047700004D03B6823F010033B6003E03B6843F048
:1047800010033B60266085F8008062B672B623682D
:1047900013F0800F04D12B7813F0FF0F0FD1E5E752
:1047A000174B18680022154B1A7062B6104B1B7815
:1047B0001841BDE8F8832B7813F0FF0FD6D062B60E
:1047C00001F096FB72B6236813F0800FF3D0E7E791
:1047D0000020BDE8F8830020BDE8F883288E0000A3
:1047E000AE2E002000B00340B02E002010B00340D9
:1047F000AD2E00200CB00B4000B00B40AF2E0020BF
:1048000010B00B40024A137813F0010FFBD0704731
:104810000100024010B584B01B4B6C461868596803
:104820009A68DB680FC4194B1B7813F0020F23D072
:10483000174B1B7813F070031CBF154A13708022AE
:10484000144B1A700022033B1A70332207331A707C
:104850000322013B1A7072B66B4643F001030C4C05
:104860002046984762B6237813F0700304D0237073
:1048700008E0013B02D105E0074B04490A7812F039
:10488000010FF6D004B010BD548E000001000240AC
:104890000000024007000240410D030010B504462D
:1048A000B0F5006F0BD2074B1B7813F0010F01D14D
:1048B000FFF7B0FF04F1A0542078C0B210BD002073
:1048C00010BD00BF0100024038B504460D46B0F5EA
:1048D000006F16D20B4B1B7813F0010F01D1FFF7BD
:1048E00099FF04F1A0542378DBB2AB4209D0064B08
:1048F0001B7813F070031CBF034A13702570FFF779
:1049000081FF38BD0100024000000240024B1A68DE
:1049100001321A60704700BFB42E002008B50D4C5C
:10492000236813F4802F01D000F01AFB236813F4DE
:10493000806F01D001F034FE236813F4006F01D0C2
:1049400002F0E0F9236813F4805FE9D002F098FCEC
:10495000E6E700BF3480044008B5FFF7DFFF00BF83
:104960001022014B1A80704700200540704700BF9D
:10497000024A13681844106018467047A488FF1F45
:10498000FEE700BFEFF31383ABB9EFF31083ABB9CE
:10499000EFF3058323B10F2B05D9094A985C03E097
:1049A0004FF4807000E00020EFF311833BB18342AD
:1049B00038BF184670474FF0FF30704700207047EF
:1049C000F0E300E0704700BF30B421285AD8042A31
:1049D00058D8DFE802F00709050B03000B2206E0B8
:1049E0000A2204E0082202E00C2200E0092214045A
:1049F000254B03EBC0004368244A2548C2F89C01BC
:104A00002448C2F8A0012448C2F8A4012348C2F8EF
:104A1000A8012348C2F8AC0103F14042A2F592225A
:104A20007C2A18D903F14040A0F594207C2814D9A1
:104A300003F14042A2F596227C2A10D903F14042AC
:104A4000A2F598227C2A0CD903F14042A2F59A22C1
:104A50007C2A08D916E0134D06E0134D04E0134DEF
:104A600002E0134D00E0134D72B61A6822F4702272
:104A70001A60C3F3840045F8201042F0807214439A
:104A80001C6062B630BC7047648E00000082FF1F5D
:104A90001188FF1FE587FF1FB987FF1F8D87FF1F45
:104AA0006187FF1FA888FF1FE088FF1F3089FF1F55
:104AB0006089FF1F8089FF1F1D4B03EBC000436807
:104AC00003F14042A2F592227C2A18D903F1404218
:104AD000A2F594227C2A14D903F14042A2F5962231
:104AE0007C2A10D903F14042A2F598227C2A0CD9E5
:104AF00003F14042A2F59A227C2A08D970470D4959
:104B000006E00D4904E00D4902E00D4900E00D49C1
:104B100072B61A6822F0877222F4803242F08072F4
:104B20001A60C3F38403084A41F8232062B6704731
:104B3000648E0000A888FF1FE088FF1F3089FF1FD8
:104B40006089FF1F8089FF1FC5490000044B0022B8
:104B50001A6004490A60044A106010221A60704703
:104B600014D0034004D0034000D0034021281ED8B5
:104B70000F4B53F8303093F8802212F0FF0F08D01B
:104B800019B1012283F880207047012283F80021A7
:104B90007047074B03EBC000436821B11A6842F02D
:104BA00003021A6070471A6822F002021A60704706
:104BB000648E0000212806D8044B53F8303093F857
:104BC0000002C0B270470020704700BF648E000032
:104BD00021284AD8254B03EBC0035B68012911D07B
:104BE00004291DD0214A52F83020002082F880028A
:104BF00000292FD0022931D003291FD040F20312FF
:104C00001A607047194A52F83020012182F8801248
:104C10004FF4A2721A601A6822F020021A607047DC
:104C2000124A52F83020012182F880124FF4A27209
:104C30001A601A6842F020021A6070474FF48072BE
:104C40001A601A6842F002021A601A6822F0010221
:104C50001A6070474FF480721A6070474FF4807288
:104C60001A601A6842F003021A607047648E0000EE
:104C700072B60C4B1B680C4A12680C49096862B684
:104C800011F0806F02D0322B88BF0132C3F5BB33E5
:104C9000FF330749A1FB03039B094FF47A7000FB24
:104CA0000230704718E000E0B42E002004ED00E070
:104CB000ABAAAAAA38B50546FFF7DAFF044625B91C
:104CC00038BD013D0AD004F57A74FFF7D1FF001B0F
:104CD000B0F57A7FF5D201F00BF9F6E738BD00BFE9
:104CE00010B5264B4FF400021A604FF080721A6024
:104CF0004FF000721A604FF080621A604FF000624D
:104D00001A6000201E4B18604BF6FF7104331960C7
:104D100028231C4A136008321360083213600832DB
:104D200013600832136008321360083213600832CF
:104D300013600922144C226004F58054043420606E
:104D4000043421600434236008342360143C22605E
:104D500004F5FE24043420600C4801600C490B600B
:104D600008310B600B4B1A60FFF730FC4FF4C87032
:104D7000FFF7A0FF00F074FC10BD00BF08E100E0E9
:104D8000048003400C8003400080034008800B40F7
:104D90000C800B4000800B4030B40E4B1B7843F06E
:104DA00002020D4C04EBC20460600C48007800283D
:104DB0000CBF8824C82444EA0141074D45F832104D
:104DC00080F00100054A107083F00103014A13705E
:104DD00030BC7047202F00200080FF1F992F00203B
:104DE00010B4431E032B11D872B60A4A52F823009E
:104DF00050B14268074941F82320074A32F813406E
:104E00000188611A22F8131062B600E000205DF8F4
:104E1000044B7047102F0020BC31002001380328BC
:104E20000DD872B6074B53F820302BB1002001305B
:104E30005B68002BFBD100E0002062B670470020C9
:104E4000704700BF642F002038B572B601231B499C
:104E50001B4C5A1812F8012C12F0080F24D09A009B
:104E600054F832506DB9164B03EBC201083048605C
:104E7000144943F83210144B1A78013A1A7062B68A
:104E800038BD42F0010254F832506DB90C4B03EBBF
:104E9000C201083048600D4943F832100A4B1A78B5
:104EA000013A1A7062B638BD0133052BD1D162B612
:104EB0000022054B1A7000F037FC38BDA08F0000AF
:104EC0000080FF1F880040008E2F0020C800400097
:104ED00010B4431E032B37D8400140F010001C4A89
:104EE000104472B61B4AD25C032A09D8DFE802F0EC
:104EF00019021B050830022216E00830042213E0D4
:104F0000154A52F823201AB9134A42F8231003E035
:104F1000124A52F823205160104A42F8231062B618
:104F200012E0032200E005220A4CE25401F10803DA
:104F3000436000F00803002B0CBF8823C8230A88B5
:104F400043EA0243036062B65DF8044B704700BF5A
:104F50000080FF1FCC2E0020642F0020742F002023
:104F60002DE9F84FA34CDFF8E092DFF8E0A2DFF87C
:104F7000E0B22578EDB215F0040F1DD09E4B1B78E2
:104F800013F0FF0F16D09D4B1B7803F0FF022BB1DF
:104F9000531EDBB2994A137003B900BE984B1B78BD
:104FA00003F0FF0233B1531EDBB2954A13700BB905
:104FB00000F016FD0423237015F0080F00F0E482C2
:104FC00099F80030DBB21D0940F021828D4D9E081A
:104FD00005EBC6035A6855F83630C3F38303013B2B
:104FE0000C2B00F21082DFE813F0CB01CB010E0294
:104FF0000E020E020E020E020E02E8010E020E0258
:105000000E020D00804913680B6052684A607F4AA7
:1050100045F8362000227E490A607A490A618A6191
:1050200001217C4A11709BB240F28162934218D8F0
:10503000B3F5D06F2ED2B3F5817F00F01E8106D874
:10504000802B00F0C980822B00F0CC8066E140F21A
:105050000232934200F02681B3F5A06F00F0628126
:105060005CE142F22102934200F0868107D8B3F559
:10507000086F00F0AB80B3F5106F11D04EE142F233
:105080002122934200F0418142F22132934200F00A
:10509000498143E1604B5D68002D40F0188130E1AB
:1050A000594B9A78544B1A70564D05F180062B6A6D
:1050B00013F0800F03D0686A083800F035FB08351C
:1050C000B542F4D1DFF88C8100263746534AB058F8
:1050D00028B1456800F028FB0DB12846F9E7002308
:1050E0004E4973504E4AB3504E4BF05828B1456864
:1050F00000F01AFB0DB12846F9E700234949735027
:10510000494AB35028F8023F484BFB5C023B032B53
:105110000AD8DFE803F0020602060022434BDA5504
:1051200002E00122414BDA5501370436102ECDD171
:1051300000223F4B1A7001253E4EDFF81C81314F93
:1051400005EB080313F8013C06F8043B13F0080FC5
:105150002DD000F0C9FA48B1A90007EB451200F1C3
:1051600008035360344A47F8312007E0AB000022BF
:1051700047F833202E4B1A7801321A7000F0B4FA37
:1051800058B1AB0043F0010307EBC30100F1080283
:105190004A601E4A47F8332009E0AB0043F00103A0
:1051A000002247F83320224B1A7801321A70AA00E5
:1051B00042F00201002347F8313042F0030247F881
:1051C000323001351D4B9E42BAD11EE20A4B1B788C
:1051D0001B4D2B700127AAE0194D00232B706B701B
:1051E0000227A4E0084B9B88042B37D90F22154BCC
:1051F0001A70C1E080200740982F0020212F002046
:105200009A2F00200080FF1F842F0020C80040003C
:10521000B82E0020992F0020A48F0000102F00200E
:10522000BC2E0020642F0020742F0020CC2E0020E4
:105230008E2F0020C420074088004000D420074063
:10524000902F0020C0200740902007409420074066
:1052500098200740BA310020A08F0000A04A00210A
:10526000117051709F4A12F8233013F0020F5CD076
:105270009B4D01232B70022759E09B4B9B8803F029
:105280007F03042B02DC984A52881AB10F22954BF7
:105290001A7071E0934A12F8231021F0020102F80B
:1052A0002310B2E1904B9B8803F07F03042B02DCB8
:1052B0008D4A52881AB10F228A4B1A705CE0894AD3
:1052C00012F8231041F0020102F823109DE1864BF1
:1052D0005E889F88854BA3F10C02114633F80C0CB5
:1052E000B04209D133F80A0CB84205D1360A032E70
:1052F0000CBF2F7817891AE00D690C330C32002D82
:10530000EBD10F22774B1A7036E0794B1A68794B44
:105310001A60754B9A78784B1A7076E10F22714BB0
:105320001A7029E000273D4601E002276C4D6E4BC4
:10533000DB889F4228BF1F46402F34BF3E46402691
:1053400028463146FFF728FD3544BF1B03D13F2EC9
:1053500000F2608110E0402F34BF3E4640262846D0
:105360003146FFF719FD3544BF1B01D13F2E03D94C
:10537000624B1D60624B1F8001238AF8003042E0BF
:10538000594B198842F22103994212D15D4BD81D25
:1053900012F8011B03F8011F8342F9D15A4B1B6815
:1053A000862B02D10F22594B1A7000200146FFF7BD
:1053B000F3FC574B45F8363025E0504B1E68BEB124
:1053C0004F4FB7F80080B8F1400F34BF4546402535
:1053D00030462946FFF7E0FCC5EB08039BB23B8053
:1053E0000BB9402D01D1354400E00025434B1D6031
:1053F0003D4B1B88B3F5A06F05D13B4B00225A7083
:105400009B788BF8003001238AF80030B9E0414ED8
:105410009F0806EBC708D8F80420A2F10800013D58
:10542000EDB213F0080F47D000F07EF93A4B53F875
:1054300025304BB35A68384941F8252003F108025A
:10544000C8F80420354A525D032A12D8DFE802F07A
:1054500002060A0E0321314A51550AE002212F4A61
:10546000515506E005212D4A515502E004212B4AF1
:10547000515518F0080F0CBF8822C8221B8842EA39
:10548000034346F837307CE0244B5B5D032B0BD89D
:10549000DFE803F0777702060022204B5A5570E0D0
:1054A00001221E4B5A556CE018F0080F0CBF022267
:1054B00003221A4B5A5564E056F837301B0C22F879
:1054C000083C002B55D0002322F8063C42F8043C4F
:1054D000134B53F825302BBB114B43F8250025E027
:1054E000902F0020C0200740842F0020B08F0000A4
:1054F000B42E0020CC310020A82F0020B82E002090
:105500008C2F0020C3310020C4310020212F002027
:10551000C80040000080FF1F642F0020CC2E002018
:10552000102F00203F4B53F8253058603D4B43F877
:1055300025003D4B33F8151032F8082C0A4423F8A7
:10554000152000F0D1F860B100F10803C8F804306C
:1055500018F0080F354B364A08BF134646F8373067
:105560000FE0002346F83730324B1A7801321A70B8
:1055700007E018F0080F2D4B2D4A08BF134646F8D8
:10558000373008232370F4E415F0010F22D02A49A4
:1055900002230B700022294B1A70294B24481860F3
:1055A000284C5C6098602848D8601A619A610D2088
:1055B000264B1870FF2326480370083803701830F4
:1055C0000270244A13709F22234B1A7001230B7020
:1055D000BDE8F88F15F0800F05D00D221B4B1A7017
:1055E0008022403B1A7015F0020F06D0184B1A7833
:1055F000D2B21A700222083B1A7015F0100F0ED0AA
:105600001022164B1A70BDE8F88F00200146FFF7F4
:10561000C3FBB1E628460021FFF7BEFBACE6BDE8C0
:10562000F88F00BFBC2E0020BC310020C800400015
:10563000880040008E2F002094200740202F00205B
:105640000080FF1FD02E0020242F0020C020074004
:10565000882007408C200740842007408020074096
:1056600008B501F081FE00231B491A465A50C8189C
:1056700042600833882BF9D1184B1A6842F4802213
:105680001A60154BC3F30721154A1170C3F3074184
:10569000143211701B0E04321370FF23343A13704E
:1056A00008321370783A137001238432137000218A
:1056B0006C3211707C3A137070220A4B1A704FF4DE
:1056C0000072A3F241331A60102203F1C04303F5C4
:1056D000C8231A7008BD00BF0080FF1F348004403B
:1056E0009C20074049E400E072B60D4B1A68B2FAFC
:1056F00082F30B2B02D962B6002070474FF00041B5
:10570000D94022EA010206490A6062B6054903EB64
:10571000C303DB00C8180022CA504260704700BFB4
:105720008889FF1F0084FF1F08B50F4BC31A0F4A5B
:10573000A2FB03131B090B2B14D80D4A12783AB1A4
:105740000C4A127812F0FF0F02D0FFF77DFB08BD64
:1057500072B6094A4FF0004121FA03F31168194368
:10576000116062B608BD00BF0084FF1F398EE338A8
:105770008E2F0020982F00208889FF1F10B5134B13
:105780001B6853B9124B1B7813F0FF0F18D003207E
:10579000FFF726FB0D4B1860A8B10C4B1868438827
:1057A0005A1C03441C7A03889A4206D3FFF7BCFFB5
:1057B0000022064B1A60204610BD4280204610BDD4
:1057C0004FF0FF3010BD4FF0FF3010BDA42F002070
:1057D000982F002008B50D4B1B6883B90C4B1B7824
:1057E00013F0FF0F08D00320FFF7FAFA074B1860F9
:1057F00028B94FF0FF3008BD4FF0FF3008BD034B14
:105800001B685A881344187A08BD00BFA42F0020D3
:10581000982F0020044B9888044B1B681BB11A88F2
:105820005B88D31A18447047BC310020A42F002095
:1058300010B50B4B1B7813F0FF0F0FD0094B1868F6
:1058400020B1FFF771FF0022064B1A6003242046A7
:10585000FFF7C6FA10B1FFF767FFF8E710BD00BF0A
:10586000982F0020A42F00202DE9F04704460122A4
:10587000374B1A700E46002964D0DFF8E080DFF85D
:10588000E0909A46334FD8F8003083BB99F8003047
:1058900013F0FF0F06D100222D4B1A704FF0FF308E
:1058A000BDE8F0874AF2F9250420FFF7B7FA072888
:1058B0000AD801238AF80030FFF716FFC8F8000065
:1058C000A8B900238AF80030013D01D03B7833B1FC
:1058D0000122204B1A704FF0FF30BDE8F08700F036
:1058E00007FB99F8003013F0FF0FDDD1D3E7002359
:1058F0003B70D8F800104A88C2F14005AE4238BF6C
:10590000354602F108030B442A444A80761B3DB118
:10591000254414F8012B03F8012BAC42F9D100E027
:1059200025464B883F2B07D940230B800420FFF7E7
:10593000CFFA0023C8F800300522074B1A700EB1C9
:105940002C46A0E70020024B1870BDE8F08700BF8E
:105950009B2F0020A02F00209A2F00209C2F00209A
:10596000982F002000B583B002AB03F8010D184654
:105970000121FFF779FF03B05DF804FB10B5144B6C
:105980001B7813F0FF0F21D00122124B1A70124B1B
:10599000196851B10024114B1C704B880B800420F6
:1059A000FFF796FA0C4B1C600DE0FFF79DFE0146D9
:1059B00030B10022094B1A700420FFF789FA02E087
:1059C0000122064B1A700022024B1A7010BD00BF54
:1059D000982F00209B2F00209C2F00209A2F002022
:1059E00008B50E4B1B7813F0FF0F16D10C4B19683E
:1059F00041B14B880B800420FFF76AFA0022084B64
:105A00001A6008BDFFF770FE014618B10420FFF7C9
:105A10005FFA08BD0122034B1A7008BD9B2F0020BE
:105A20009C2F00209A2F0020F8B506460F461446FA
:105A300052B1002533681B68304617F8011B9847A0
:105A40000544013CF6D100E000252846F8BD00BF22
:105A50002DE9F0438BB0074688468C68C4B1002519
:105A60002E464FF02109404601A94A462B4600F038
:105A7000B3F9202C34BF224620221544A41A3B68D7
:105A80005B68384601A998470644002CEBD100E03A
:105A9000002630460BB0BDE8F08300BF00B583B0F0
:105AA000054B1B88ADF8043003685B6801A902222E
:105AB000984703B05DF804FB748F0000F0B58BB01D
:105AC000164622B903681B68C9B298472FE0012A1D
:105AD00008BF0A2621B930228DF82520212417E09D
