:1000000000800020BD010000B14100007D410000E2
:100010007D4100007D4100007D4100007D410000E8
:100020007D4100007D4100007D410000B1410000A4
:10003000B14100007D410000B14100006D41000070
:10004000B1410000B1410000B1410000B1410000E8
:10005000B1410000B1410000B1410000B1410000D8
:10006000B1410000B1410000B1410000B1410000C8
:10007000B1410000B1410000B1410000B1410000B8
:10008000B1410000B1410000B1410000B1410000A8
:10009000B1410000B1410000B1410000B141000098
:1000A00091360000B1410000B1410000B1410000B3
:1000B000B1410000B1410000B1410000B141000078
:1000C000B1410000B1410000B1410000B141000068
:1000D000B1410000B1410000B1410000B141000058
:1000E000B1410000B1410000B1410000B141000048
:1000F000B14100006D5A0000B141000029610000CB
:10010000B141000029660000B1410000B14100008A
:10011000B1410000B1410000B1410000B141000017
:10012000B1410000B1410000B1410000B141000007
:10013000B1410000B1410000B1410000B1410000F7
:10014000B1410000B1410000B1410000B1410000E7
:10015000B1410000B1410000B1410000B1410000D7
:10016000B1410000D9460000B1410000B14100009A
:10017000B1410000B1410000B1410000B1410000B7
:10018000B1410000B1410000B1410000B1410000A7
:10019000B1410000B1410000B1410000B141000097
:1001A000B1410000B1410000B1410000B141000087
:1001B000B1410000B1410000B1410000564B4CF28A
:1001C000205210B51A804DF628121A8000BF00BFC9
:1001D00003F0F2FF514B4FF010621A60504A9A60E0
:1001E000504ADA60A3F53043203B1A6812F480725B
:1001F00004D14D490A604FF4A8521A604B4B1A784B
:10020000110703D51A7842F008021A70484B2A22C7
:100210001A700023474A48499818884204D247492F
:10022000595899500433F5E7454A464B9A424FF0E6
:10023000000302D242F8043BF7E74349434A5958C6
:1002400099500433B3F5DE7FF7D1414B802103F899
:10025000011B40498B42F9D13F4B1A603F4B8A2228
:100260001A70A3F5805324225A70A0221A709A792A
:100270009207FCD59A79D406FCD4394B9A7902F0CE
:100280000C02082AF9D103221A7140225A719A7974
:100290009006FCD5324B9A795106FBD5314A32494A
:1002A00011600221516020221A702D4B9B7903F0BE
:1002B0000C030C2BF9D12D4B2D4A1A602D4B2E4AD5
:1002C0001A6000225A60072243F8042C2B4AC3F814
:1002D0000C2D62B604F0E6F8134B1B68DA0705D55F
:1002E000274804F02FF8274B274A1A60274B1B7822
:1002F0005B0609D5234C244A2368934204D1204845
:1003000004F020F80023236006F0DCFB03F05AFF22
:1003100005F07AF8FEE700BF0E200540308004406B
:10032000823F04000100002B14D0034002D007409C
:1003300000E007406087FF1F9C8AFF1F34750000A4
:100340009C8AFF1FB8290020000000000082FF1FC8
:1003500000E400E05FE400E008ED00E0005006404B
:100360000040064044800440000003010480044033
:10037000C010050014E000E0FF760100000020201E
:100380004A85A7581CE00340A5C3945A00F00740D3
:10039000FFFFFFFFFFFFFFFFFFFFFFFFFFFFFFFF6D
:1003A000FFFFFFFFFFFFFFFFFFFFFFFFFFFFFFFF5D
:1003B000FFFFFFFFFFFFFFFFFFFFFFFFFFFFFFFF4D
:1003C000FFFFFFFFFFFFFFFFFFFFFFFFFFFFFFFF3D
:1003D000FFFFFFFFFFFFFFFFFFFFFFFFFFFFFFFF2D
:1003E000FFFFFFFFFFFFFFFFFFFFFFFFFFFFFFFF1D
:1003F000FFFFFFFFFFFFFFFFFFFFFFFFFFFFFFFF0D
:10040000FFFFFFFFFFFFFFFFFFFFFFFFDEF9FFFF23
:1004100010B5054C237833B9044B13B10448AFF33E
:1004200000800123237010BD9C8AFF1F0000000084
:100430003475000008B5064B1BB106480649AFF3FA
:1004400000800648036813B1054B03B1984708BD07
:100450000000000034750000A08AFF1F9C8AFF1F67
:1004600000000000083001F0FFBE07B502AB01221A
:1004700003F8011D0830194601F0F6FE03B05DF8DF
:1004800004FB10B50446103004F05AFE204604F078
:1004900057FE204610BDFFFF38B5054CA4F57A6520
:1004A0002046283CFFF7EDFFAC42F9D138BD00BF34
:1004B000D49EFF1F08B5022003F074FF034BD0F158
:1004C000010038BF0020186008BD00BF382600209A
:1004D00070B50E2003F066FF0646112003F062FFA0
:1004E000051C18BF012510200DB9012100E00021D5
:1004F00003F066FF144C03208EB9012103F060FF66
:100500000420012103F05CFF0520012103F058FFC6
:100510000620012103F054FF4FF4527312E0002132
:1005200003F04EFF0420002103F04AFF05200021C4
:1005300003F046FF0620002103F042FF0DB98C2393
:1005400000E00023236070BD689FFF1F10B503F01B
:1005500075FF164B16491A68801A88421C4623DD1F
:10056000082003F01FFF20B9124A137883F001031B
:100570001370072003F016FF30B90E4B1B781BB128
:100580000D4A1368013B0DE0092003F00BFF10B981
:10059000084B1B781BB903F051FF206010BD064AC1
:1005A000136801331360F6E710BD00BFE08AFF1F38
:1005B0003F0D0300349FFF1F649FFF1F08B50B4BC7
:1005C0001B68B3F5527F10D1012003F0EBFE084BFE
:1005D0001A6801280CBF02F1FF3201321A601B6851
:1005E000002B02DA024B00221A6008BD689FFF1F31
:1005F0008C88FF1F38B5204B1B688C2B3BD1002407
:100600001E4D2B68A34209D01D4B13F8240003F0A4
:10061000C9FE012802D11B4B1C6002E00134042CEE
:10062000EED1184A11682B68994224D0134B1B68ED
:10063000032B154B01D11168D1B1296811B911688B
:10064000032909D010682968884211DC0D4908681F
:100650000A490968884202DA1968013919601B6879
:10066000002B02DA084B0021196013682B6038BD9B
:1006700019680131F2E738BD689FFF1FC4050020EB
:10068000C86D0000E48AFF1F309FFF1F38B5044685
:1006900008460D4606F018FB236802465B682046B4
:1006A0002946984738BD08B5FFF7F0FF08BD38B5B3
:1006B000044604F0CEFC0546204604F0EBFC28443A
:1006C00038BD38B50446FFF7E1FF0546204604F083
:1006D000E1FC284438BD38B50446FFF7D7FF05468E
:1006E000204604F0D7FC284438BD38B50A22002340
:1006F000044604F0DFFC0546204604F0CBFC284409
:1007000038BD70B50668044630460D4603F0F8FC67
:10071000854203D03046294603F006FD204670BDD1
:1007200010B50021044604F04BFD04F11000002137
:1007300004F046FD204610BD38B504460D4604F0D1
:100740005AFD04F1100005F1100104F054FD2B6A6C
:1007500023626B6A6362204638BDFFFF214B1A6833
:10076000B2F5527F10B503D11F480C21012206E0DB
:100770001B681D488C2B4FF00C0105D1002203F0A3
:100780000BF9194819490DE0012203F005F9184940
:100790001548FFF788FF14480C21002203F0FCF8ED
:1007A00011481349FFF77FFF124B0F481A68632A5D
:1007B000CCBF0D210E2101221C4603F0EDF80E4B9B
:1007C000094819682368194404F0ACFC06480E2156
:1007D000002203F0E1F8094B03481968BDE8104016
:1007E00004F0A0BC689FFF1FF0050020D86D00003A
:1007F000DB6D00003426002038260020009FFF1FFC
:1008000030B5184C184D85B0204603F0B1F80021E2
:100810000A46204603F0C0F82946684604F0D0FC9A
:100820006846124904F056FD0146204604F011FCCA
:10083000684604F085FC01222046002103F0ACF854
:100840002946684604F0BCFC6846094904F042FDAC
:100850000146204604F0FDFB684604F071FC05B03B
:1008600030BD00BFF0050020DD6D0000C805002090
:100870000C26002070B50D780723002240FA03F4FF
:1008800014F0010403D05D0004FA05F504E025B975
:100890005D00022606FA05F52A4313F1FF3301D362
:1008A0002546EBE70C70104670BDFFFF10B5072220
:1008B00040FA02F313F0010F0E4B14D00E498024BE
:1008C0000C601C681968091B5D29FBD90B49802441
:1008D0000C6008490C681968091B3F29FBD912F103
:1008E000FF32E5D210BD1C681968091B9F29FBD98E
:1008F000F5E700BF041000E0C8F00F40C4F00F405F
:10090000072340FA03F212F0010209D008490A60F5
:10091000202101397FF4FDAF06490A60602200E022
:100920008022013A7FF4FDAF13F1FF33E9D2704723
:1009300044F00F4048F00F40114B4FF4805210B577
:100940001A6000240F4B1B689C4218DA0E4B1A6881
:100950000E4B1B68B3EB420F11D1BC2C03D10C4BD7
:100960004FF480521A600B4B1B6843F22C3202FB8F
:100970000343094AD05CFFF799FF0134E2E710BD59
:1009800008F00F409088FF1F8C88FF1F342600203E
:1009900004F00F40382600206C9FFF1F38B500245C
:1009A0000C4B1A68022392FBF3F20B4B1B689A4222
:1009B0000ED10025094B2344585D0135FFF7A0FFF8
:1009C000B5F5007FF6D104F50074B4F5005FE7D10A
:1009D00038BD00BF309FFF1F009FFF1F0C06002087
:1009E0002DE9F843244E336800EB03130546DB681A
:1009F00043B9326800EB02129360336800EB0313D3
:100A0000BE22DA60002433681B4F1B01EB589C4266
:100A10002FDA1A4B1A681A4B1B68B3EB420F28D116
:100A20003B68DFF8688043F22C3909FB034318F870
:100A30000300FFF73BFF3B6809FB038808EB040357
:100A40005878FFF733FF3B6805EB03139B68A3421D
:100A500003D10C4B4FF480521A60336805EB03133B
:100A6000DB68A34203D1084B4FF480521A60023472
:100A7000C9E7BDE8F88300BF382600208C88FF1F37
:100A80003426002008F00F4004F00F406C9FFF1F39
:100A90002DE9F341012300250646884617468DF8C7
:100AA00007302C46184B1B689D4220DA08EB0503E3
:100AB00018F805005B784BB90DF10701FFF7DAFE76
:100AC000631C020A3255F05402341BE0012B0CD196
:100AD000311989223255E01C24224A7055228A702D
:100AE000043432548DF807300CE0022B03D13C6003
:100AF00002B0BDE8F081032B01D1BD6002E00D2BF7
:100B000008BFFD600235CDE79088FF1F2DE9F04753
:100B1000C4B00123044688468DF80330D7B20025BF
:100B2000AA200DF10301FFF7A5FE030A6355023564
:100B300063191A2D03F8010CF2D11A34002601238F
:100B40008DF8033089232370242301AD637055236E
:100B5000A370E37095232B706A236B705A236B711B
:100B6000FE23AB70EF702E71A2464FF0000915F80E
:100B700009000DF10301FFF77DFE09F10109030AE8
:100B8000B9F1060F8AF804308AF805000AF1020A62
:100B9000EDD125464FF00009AA200DF10301FFF722
:100BA00069FE09F10209030AB9F10A0F2B7468748E
:100BB00005F10205F0D101238DF803308923A376D6
:100BC000242303ADE376552323776377002128465A
:100BD0004FF4827203F0F6F86A232B7000209523FD
:100BE0006B7008EB06210346FF2B0A5CC8BF01337C
:100BF00005EB000E00F10100C8BFDBB2B0F5807F4D
:100C00008EF802201344EFD185F802315A2385F87B
:100C10000331A2464FF0000915F809000DF1030158
:100C2000FFF728FE09F10109030AB9F5827F8AF866
:100C30001E308AF81F000AF1020AEDD125464FF056
:100C40000009AA200DF10301FFF714FE09F10109C3
:100C5000030AB9F1160F85F8263285F8270205F147
:100C60000205EED10136152E04F252247FF467AF4F
:100C700044B0BDE8F087FFFFF0B5244B1F5CD7B050
:100C80003F026B4600206E46CC195528255C05F0C6
:100C900003044FEA950535541D4D03DC2C5D83F8A4
:100CA000554112E0A0F1560CBCF1550F2D5D06D850
:100CB00093F8AB4144EA850483F8AB4105E093F82F
:100CC000014244EA051483F801420130B0F5807F07
:100CD00003F1FF33D8D100231946552BD6BFC3F5F6
:100CE000AA70A3F156000130B3F5AB7F305C094C1C
:100CF00018BF4140615CD154013340F257118B421F
:100D000001D00146E9E757B0F0BD00BFB86D000063
:100D10008588FF1F4488FF1F2DE9F04157104F4C75
:100D2000D6B08846164647F0AA070025E9B200204B
:100D3000FF23235401301628FAD14FF0CF0E84F848
:100D40001AE084F81FE04FF0960E84F824E04FF08C
:100D5000FE0E84F826E066F0550E84F828E04FEA8F
:100D6000650E6EF0550E84F829E061F0550E84F89A
:100D70002AE086F0FE0E81EA0E0103224FEA610EA0
:100D800061F05501F320A27584F82C10FC22DE21BD
:100D9000E275E076227784F8200084F82120D520BF
:100DA000AA2284F82D10EB214FF03F0C23766377B5
:100DB00084F8220084F8232084F825306EF0550E44
:100DC00084F82E2084F82F1084F8303084F83130E5
:100DD00084F8323084F8333084F8343084F83500C5
:100DE000AD2384F83620284641466A4684F819C067
:100DF00084F81EC084F82BE084F8277084F837301C
:100E0000FFF73AFF382300AA1A4412F8382CE254AC
:100E1000013340F28F129342F5D1DE2384F88F31F3
:100E2000AA2384F89031EB2384F891314FF4C973ED
:100E3000FF22E2540133B3F5D07FF9D10022E2540E
:100E40000133B3F5007FF9D10135102D04F500749D
:100E50007FF46CAF56B0BDE8F08100BF0C060020F7
:100E60002DE9F04F9BB000AF88467A61064603F04B
:100E7000E5FAAC4BAC49186007F1580004F0A0F952
:100E8000414607F1580004F025FA08F11004A7497B
:100E9000A74D04F028FA214604F01CFA0146A548A3
:100EA000FFF705FC07F1580004F04AF9FFF7A8FC2A
:100EB0002046A14904F049FA20B1D8F824308C2BFF
:100EC00000F02A8120469D4904F03FFA10B143F218
:100ED000D4030EE020469A4904F037FA10B14FF4DB
:100EE0004A5306E02046944904F02FFA10B14FF41B
:100EF000A8532B604FF002092B68FB60073323F0E7
:100F00000703ADEB030D20468B49EA4604F01DFABA
:100F100040B1D8F820308B498B420CBF4FF4807120
:100F2000002100E001462B687A69874D083630467B
:100F300003FB02113E6101F07AF80026834907F1B4
:100F4000280004F03DF9824B0A22196807F11800C5
:100F500004F07FF907F1180107F1280004F0BAF94D
:100F60007C4904F0C0F97C4B0A221968834607F1DA
:100F7000380004F06EF9584607F1380104F0AAF978
:100F8000764904F0B0F9F1B2834607F1480004F065
:100F90004DF9584607F1480104F09CF97049DFF813
:100FA00090B104F0A0F90A220346DBF800107B6040
:100FB00007F1580004F04DF97B6807F15801184615
:100FC00004F088F9674904F08EF90146594804F0A5
:100FD00040F807F1580004F0B3F807F1480004F0B6
:100FE000AFF807F1380004F0ABF807F1180004F08F
:100FF000A7F807F1280004F0A3F803F01FFA494B03
:101000001968411A4B48FFF770FBDBF800304FF4CA
:10101000805B002B21DD9B45A8BF9B460BF107029F
:1010200022F00702EC46ADEB020D69465A463869DC
:10103000C7F808C07B6000F003FF3D4A7B6810687A
:10104000C01A694650445A4602F022FE7B68D7F81F
:1010500008C0CBEB0303E546DBE743493548FFF720
:1010600022FB03F0EBF92F4B1968411A3148FFF7C7
:101070003CFBD8F824308C2B7ED120462E4904F03E
:1010800064F9002878D0284651467A69FFF744FE73
:1010900036492848DFF88CB0FFF705FB03F0CEF99E
:1010A000DBF800100136411A2248FFF71EFBF3B2AD
:1010B00005F54C554B4505F12C05FFF43FAFD8F82D
:1010C0002430B3F5527F06D120461B4904F03DF988
:1010D000002840F0998026491648FFF7E4FA03F00B
:1010E000ADF9DBF80010411A1248FFF7FEFAFFF7DE
:1010F00035FB20490F48FFF7D6FA03F09FF9DBF8DC
:101100000010411A0B48FFF7F0FA0A4803F0C2FF3B
:101110006C37BD46BDE8F08F4FF480532B604FF025
:101120000109E9E6FC9EFF1FDE6D0000ED6D000089
:101130009088FF1FD0270020F66D0000446E00004D
:10114000FA6D000000210D006C9FFF1FFE6D000076
:101150008C88FF1F0E6E000034260020106E0000E9
:10116000196E00002E6E0000226E0000486E000016
:101170005A6E0000796E00002046264904F0E5F81A
:1011800048B3DFF8ACB028460BEB06125146FFF728
:101190007FFC07F15800204904F012F81F4B1B6830
:1011A0001B010A225BF8031007F1480004F051F814
:1011B00007F1480107F1580004F08CF8014618487F
:1011C000FFF775FA07F1480003F0BAFF07F158007E
:1011D00003F0B6FF5CE72046124904F0B6F830B1E0
:1011E0007A69284651463244FFF790FC50E7204682
:1011F0000D4904F0AAF800283FF44AAF28465146AA
:10120000FA6802F045FD43E7084B43F2D4021A6046
:1012100061E700BFFA6D0000326E00003826002042
:10122000D0270020F66D0000446E00009088FF1F5C
:10123000BC8AFF1F2DE9F04F664B674E1A689DB0C0
:101240000AB9326002E01B685B003360634B644F95
:101250001A680AB93A6004E01A68022392FBF3F3B1
:101260003B60604B604C1B78DFF8B08103F0FF02FD
:10127000BBB12368002B5D4B02DA1B78013B04E015
:1012800022681B789A4201DB00232360584B2168B7
:101290001A7891421F4663D198F80030002B5FD036
:1012A000ECE198F80030002B36D01CAD216845F8F1
:1012B0002C2DC9B22846FFF724FAFFF7A1FAFFF751
:1012C0004DFA4C4907A803F07BFF0E2003F06AF8A3
:1012D000014603A803F0AAFF03A907A803F0FAFF39
:1012E000454904F000F88146112003F05BF80146FF
:1012F000284603F09BFF2946484603F0EBFF0146D2
:101300003E48FFF7D4F9284603F01AFF03A803F07C
:1013100017FF07A803F014FF2268394DDFF8F89093
:10132000DFF8F0B0DFF8F8A0282101FB025200231B
:10133000526A88F800308C2A2B4BDFF8E88073D192
:101340001A6899F8001091426ED019684FF0FF3377
:10135000C9B2C8F8003089F800101CA8012388E140
:1013600028492648264DFFF79EF92168234803F0B7
:10137000D9FE224803F08EFE234802F0F9FA2349F1
:101380002148FFF790F901221F48002102F004FBD9
:1013900021681D4803F0C6FE1D491B48FFF783F96D
:1013A00021681948282606FB015103F052FE164811
:1013B0000D21002202F0F0FA2368134806FB0355C2
:1013C000696A03F0AFFE23683B70012388F80030A0
:1013D00054E100BF8C88FF1F34260020309FFF1F80
:1013E000009FFF1F349FFF1F649FFF1F3D260020AB
:1013F0008488FF1F8A6E0000976E0000D0270020AF
:101400005C8FFF1FDA6E0000F0050020F96E00000F
:101410001B700000DC8AFF1F3C260020B88AFF1FDB
:101420009888FF1F9488FF1F2268964B282101FB94
:101430000252526AB2F5527F05D11A689BF8001029
:10144000914240F00C819BF800108F4C4FF0280B1C
:1014500020460BFB015103F06AFF0346002835D1FB
:101460008A4A11788A4A01930BFB012B5946204680
:1014700003F0B9FE0BF1100104F1100003F0B3FE0C
:10148000DBF8202022628349DBF82420626211A865
:1014900003F096FE214611A803F01CFF01467E488A
:1014A000FFF705F911A803F04BFE7C4800F088FE19
:1014B000A268019B204611A9013203F059FF784B25
:1014C0007648196811AA012300F081FE99F80010EE
:1014D000744C4FF0280B20460BFB015103F027FF03
:1014E0008146002832D1704B1D78694B0BFB0535C6
:1014F0002946204603F077FE05F1100104F11000A3
:1015000003F071FE2B6A236268496B6A636211A85B
:1015100003F056FE214611A803F0DCFE01465E48AA
:10152000FFF7C5F811A803F00BFE614800F048FE74
:10153000A268204611A901324B4603F019FF584B0F
:101540005B48196811AA012300F041FE3368DAF8FC
:101550000020934228D0574A13604FF400520BB931
:10156000554B00E0554BDFF884E11A600EF1080599
:101570000FCD13AC0FC40FCD0FC42B6823609EF8A2
:1015800004308DF8483040494D4B119307A8FFF7C0
:10159000D3F8327811A807A9FFF762FC07A8FEF775
:1015A00070FF484B10221A603B68D8F80020934225
:1015B0001DD0454E454A06F1080513600FCD13AC0A
:1015C0000FC40FCD0FC42B68236033798DF84830DA
:1015D00034493B4B119307A8FFF7AEF83C4B11A8D9
:1015E00007A91A78FFF73CFC07A8FEF74AFF394C19
:1015F000394D22682B689A421AD0384911A803F055
:10160000DFFD0A22216807A803F023FE07A911A81D
:1016100003F060FE01462048FFF749F807A803F0F1
:101620008FFD11A803F08CFDFFF798F823682B605D
:1016300023688C2B02D1FFF7B1F91FE0254B1B6803
:10164000B3F5527F1AD12648264903F07EFE18B121
:101650002548FFF7C5F911E0FFF76EF90EE01968AC
:101660000A4BC9B219704FF0FF33CAF800301CA8FA
:10167000022340F82C3DFFF744F8E4E61DB0BDE836
:10168000F08F00BF649FFF1F0C260020DC8AFF1F25
:101690005C8FFF1FA46E0000D02700200C9FFF1F4F
:1016A00040260020C80500203C260020B26E000025
:1016B000409FFF1F9888FF1F08F00F4004F00F4065
:1016C000B06D0000C8F00F40389FFF1F9488FF1FC7
:1016D000009FFF1F689FFF1F4088FF1FC06E000014
:1016E0001C260020FA6D0000BC8AFF1F049FFF1F0C
:1016F00038B590F8603405460C464BB308461C4993
:10170000FEF7E9FF95F86034202B03D120461949F4
:10171000FEF7E1FF95F8603443B320461649FEF723
:10172000B5FF95F8601410220023204603F0C2FC98
:1017300020461249FEF7AAFF204695F869140023B7
:10174000102203F0B7FC2046BDE8384003F0A2BCED
:10175000C37913B908460A4906E090F83C340846B4
:101760000BB9084900E00849FEF7B5FF38BD00BFD6
:10177000066F00002D6F00005D6F00006E6F0000AF
:10178000726F00008F6F0000AA6F000010B586B066
:1017900002F072FC04230193052302930623002424
:1017A000039307233F2104930222012300941F483F
:1017B00002F0F8F91E4B1F48DC71642283F86024A4
:1017C0001D4AC3F86C2483F83C4483F83D4483F8F5
:1017D0006A441A4B1A4A1A601C725C721C71194BCB
:1017E0001C725C721C711A60FEF79AFF1649174A48
:1017F000104805F051F91648FEF792FF14481249B7
:10180000124A05F049F9134820442834FEF788FFAE
:10181000B4F57A6FF7D110490C4A002005F03CF975
:1018200002F00CFE0D4B186006B010BDF005002054
:10183000E88AFF1FC805002001100138389FFF1FEC
:10184000B06D0000049FFF1F830400003C88FF1F51
:101850000C2600205C8FFF1F99040000FC9EFF1FD8
:10186000F0B59D4BDA68D201A3B008D4DA6842F033
:101870008072DA60994B1A6842F001021A60984B44
:10188000984800241C6010212346022202F0F0F93F
:1018900022469448032102F029F90121914802F0DF
:1018A00030F9904802F06EF88F498E48FEF7FBFE43
:1018B0000320012102F084FD0420012102F080FDBB
:1018C0008A4B4FF400521A600520012102F078FD86
:1018D0000620012102F074FD854B10251D600E20AD
:1018E000022102F06DFD2046022102F069FD012077
:1018F000022102F065FD0220014602F061FD204652
:101900007C49022202F0B6FC02207B49042202F04C
:10191000B1FC0E207949042202F0ACFC1120022116
:1019200002F04EFD2846012102F04AFD744B1D5D78
:101930000021284602F044FD043428467149032260
:1019400002F098FC102CF1D1042211206B496E4C4E
:1019500002F090FC0720022102F032FD0820022153
:1019600002F02EFD0920022102F02AFD072067491E
:10197000022202F07FFC08206449022202F07AFC75
:1019800002226249092002F075FC002002F00AFBE5
:1019900003F0D0FB4FF4FA6002F06EFD04F58C65A5
:1019A0005B495C48FEF77FFE284604F26C410A2240
:1019B0004FF0384301F042FA002800F067812560BB
:1019C00004F23C4000F0FCFB0121204601F005F947
:1019D000014650B14C4D05F23C442046294600F0EA
:1019E00017FA002800F0528105E0204601F0F5F8D2
:1019F0000028EFD14AE195F83C3413F0700F00F065
:101A00004581454B454943481C60FEF75AFE204638
:101A1000002100F00CFB424810A900F0C4FA202875
:101A200040F08E8012A83F49032205F055F960B1BD
:101A300012A83D49032205F04FF930B112A83B49E5
:101A4000032205F049F90028E5D1394C394D6946A2
:101A500010A800F0BAF92078282606FB0050694645
:101A600003F0D4FB694608A8277803F0A9FB694670
:101A70000CA803F0A5FB0E9A08A9033A18A803F0D6
:101A8000AEFC18A803F0B2FC06FB0757103701465E
:101A9000384603F0A8FB18A803F052FB0CA803F08B
:101AA0004FFB08A803F04CFB2178179A06FB015561
:101AB000B2F50C3F05F120032A6205D01E48824290
:101AC00002D01E48824201D18C2201E04FF45272B2
:101AD00001315A6021709EE7F0ED00E0001000E057
:101AE000041000E0F0050020BA6F000008F00F407D
:101AF000C4F00F40BD050000B5040000D104000093
:101B0000C86D0000F5050000E88AFF1F4D050000C4
:101B1000C76F0000D027002040260020DF6F0000A4
:101B2000248FFF1F446E0000FA6D0000F66D000068
:101B30003D2600205C8FFF1F043002008030020031
:101B40005B485C49FEF7BDFD00245B4B58481B78A1
:101B50009C4249DA214603F0E5FA584B282101FB63
:101B6000043118A8FEF7E8FD55490CA803F028FB3E
:101B700018A90CA803F0AEFB01464D4803F069FA22
:101B80000CA803F0DDFA4F490CA803F019FB1CA9BF
:101B90000CA803F09FFB0146454803F05AFA0CA835
:101BA00003F0CEFA219B484941481944FEF77BFDDA
:101BB00046490CA803F004FB0A22209908A803F068
:101BC00048FB08A90CA803F085FB01463848FEF73E
:101BD0006EFD08A803F0B4FA0CA803F0B1FA18A837
:101BE000FEF74FFC0134B0E703F054FA02F026FC94
:101BF000374B384E1968384D384C411A2C48FEF78F
:101C000074FD002002F07CFA3060012002F078FAC6
:101C10002870022002F074FA3149207008A803F0FD
:101C2000CFFA0A22316804A803F013FB04A908A81C
:101C300003F050FB2B4903F056FB297806460CA80D
:101C400003F0F4FA0CA9304603F044FB264903F0F4
:101C50004AFB2178054618A803F0E8FA18A9284697
:101C600003F038FB01461248FEF721FD18A803F0E7
:101C700067FA0CA803F064FA04A803F061FA08A854
:101C800003F05EFAFEF716FC23B0F0BD174801F032
:101C900079FE17491548FEF706FD16490448FEF778
:101CA00010FD15480249FFF723FD03F0D5FBFCE7C3
:101CB000D0270020F46F00003D2600205C8FFF1F1E
:101CC000DC6D0000FF6F000002700000196E000064
:101CD000FC9EFF1F649FFF1F3C260020DC8AFF1F25
:101CE0000B700000167000001E700000F005002050
:101CF0002670000036700000E88AFF1F10B5044609
:101D0000243000F06FFE28B104F50C70BDE81040DF
:101D100000F068BE10BD8378024663F07F038370D5
:101D200011698068103200F007BFFFFF2DE9F04114
:101D3000037803F02003044603F0FF050BB10026EF
:101D40002EE04369184A9342F9D8FFF7E4FF0646AC
:101D50000028F4D02169A06800F08FFE0746A06833
:101D600039462430052200F064FE80460028E6D083
:101D700029464FF4007202F025F80125A1680B797D
:101D80009D4209D208684246E91901F079F9002814
:101D9000D5D00135EDB2F1E7626902EB432363610F
:101DA0003046BDE8F08100BFFFFD1F0010B50446BE
:101DB00080680A462430A16900F03BFE20B1A38868
:101DC00003F00F0300EB431010BD002270B5134663
:101DD0000825845C202C14D0D4B2082C04D12E25E4
:101DE0005C1CCD54E3B21025845CA4F14106192E8D
:101DF00004D8067B35421CBF2034E4B25E1CCC54B0
:101E0000F3B201320B2AE4D10022CA54184670BD45
:101E100070B5057804460E4685B92946242201F09E
:101E2000D1FFA660F379102B03D0202B06D14023DD
:101E300000E0202301202370A07070BD002070BD41
:101E40002DE9F84F037804468946174653B1827846
:101E5000D20707D50EE0216904F1100200F013FE4D
:101E600000283CDA637843F0020363704FF0FF30E0
:101E7000BDE8F88F1A0703D5E2696369D31A07E052
:101E80009B0608D5A3681A896369C3EB42139BB20A
:101E90009F4228BF1F463D464FF0000B002D35D016
:101EA00022786369A06812F0200FC3F3080A4FEA92
:101EB000532102D0066A0E441DE090F805B001EAF5
:101EC0000B0BBAF1000F10D1BBF1000F0DD1002B9D
:101ED000C1D156064CBF036A236A236105E004D1D1
:101EE000237813F0700F11D1BCE7A068216900F0CE
:101EF000C4FD00EB0B06A068BAF1000F39D1B5F5AF
:101F0000007F36D3C36A9E4203D132E0781BBDE81E
:101F1000F88FB5F5806F1CD322789106C5F3472A58
:101F200006D40279CBEB0202D2B2524538BF9246B8
:101F30009E424FEA4A2808D9A368314618684A46A3
:101F4000534601F05CF868B98CE753449E4224D3B1
:101F5000F2E7006831464A4601F008F8002881D0CF
:101F60004FF4007863694344C1446361C8EB0505DD
:101F700094E731462430002200F05BFD0146002842
:101F80003FF470AFCAF50078454538BFA8464846CB
:101F90005144424601F07CFEE4E7243000F022FD8B
:101FA0000028C9D15EE738B5037813F0700F0546F5
:101FB0000C461AD04369DA0617D12846214620225A
:101FC000FFF73EFF03B2202B04D0002B14BFFF20ED
:101FD00000200DE0237853B1E52BEED02E2BECD072
:101FE000E37A1B07E9D4C0B202E0FF2000E0184604
:101FF00040B238BD436937B5C3F34315044605B154
:1020000069B920460DF107010122FFF719FF40B21F
:10201000012801D0002008E063691F3300E020336D
:10202000A0686361303000EB451003B030BDF8B5F7
:102030000278076904460D46002A35D041698D4271
:1020400035D00DB905612DE0160703D5C3699D4252
:102050002AD807E0900605D5A3681B89B5EB431F76
:1020600022D81FE0A668B379481E093305F1FF3C6A
:10207000D8402CFA03F3834200D329B952064CBF4F
:10208000326A226A226100E01B1A1E4656B1A0681D
:10209000216904F1100200F0F6FC002806F1FF3679
:1020A000F4DC01E0656102E027610020F8BD012059
:1020B000F8BDF8B50F4616460021242204461D46F9
:1020C00001F080FEB8683B6AE36006F00F0200F1A1
:1020D000300303EB4212A060A680D37A1F0702D51B
:1020E00000202070F8BD03F017032370D17A11F09F
:1020F000180F04BF43F0080323709DF81830E370F5
:1021000015F0320F03D0237813F0110FE8D105F04A
:102110000F03A370C36AA361918A538BEE0643EA4F
:10212000014104D571B100F03CFD58B9D8E72162F6
:10213000D369E361AB060AD52046E169FFF777FF73
:1021400028B9CDE7A37863F07F03A370F2E70120FD
:10215000F8BDFFFF38B50378044663B390F9023049
:10216000002B23DA0121FFF721FE054628B9637809
:1021700043F001036370002038BD0378E52BF6D0EF
:1021800023781B0744BFE369C361236A43831B0CA5
:1021900083820A4B1B682BB1183005F11601984752
:1021A0002B8B6B82A37803F07F03A370A068FFF7EB
:1021B000A5FD0028DBD0012038BD00BF442600204B
:1021C00010B50446FFF7C6FF0023237010BDF0B51D
:1021D0001F4693B0037801920C46002106468DF805
:1021E00024108DF825100BB100203BE0237813F06C
:1021F000700FF9D013782F2B13D101990A782F2A59
:1022000002D101310191F8E722B93046A168FFF708
:10221000FFFD27E009A8A168FFF7FAFD0028E3D039
:1022200009AC019803A901AA00F009F90028DBD044
:10223000019B1B783046214603AA83B1012300F09D
:102240002BFA0028D0D035460FCD09AC0FC40FCDE6
:102250000FC42B6823603046FFF7B2FFE0E73B4630
:1022600000F01AFA13B0F0BD2DE9B84703781D0746
:1022700004468946924608D58378990705D55B07B9
:102280000BD5E169FFF7D3FE38B9637843F001035A
:1022900063704FF0FF30BDE8B8876369DB439A4550
:1022A000F3D857466369002F00F08380A06890F848
:1022B000058018EA5328C3F3080519D1C5B9216967
:1022C00059B104F1100200F0DEFB0028DDDB0FD174
:1022D0002046FFF720FD58B9D7E7236A3BB92046CF
:1022E000FFF719FD0028D0D02369236200E02361A5
:1022F0002169A06800F0C1FB00EB0801A06815B9D6
:10230000B7F5007F20D2C5F50078474538BFB846FD
:1023100035B96269E3699A422CBF0522012200E0C7
:102320000122243000F085FB0028AED02844494625
:102330004246454401F0ACFCB5F5007F32D1A068BF
:10234000243000F04FFB19E0B7F5806F18D3037904
:10235000C26AC8EB03085FFA88F8C7F3472343450E
:1023600028BF434691424FEA432802D81A4491427B
:1023700037D3A26810684A4600F0E1FE90B984E7BE
:10238000C36A8B4204D14FF0FF3380F82450C362FC
:10239000A3684A46186800F073FE00283FF475AF42
:1023A0004FF40078636943446361C144C8EB070795
:1023B00078E7E2699342A27801D9E36102E00C4B2D
:1023C0001B6813B162F07F02A270A3781A0702D4CF
:1023D0005046BDE8B8872046FFF7BCFE0028F7D17D
:1023E00053E74FF0FF3280F82450C262C1E700BFCC
:1023F00044260020042904D800EB4101B1F8010073
:1024000070470A2904D8013900EB4100C0887047A1
:1024100010299DBF013100EB4100808800207047EA
:10242000002310B5044618464208E15C42EAC01297
:10243000013351FA82F20B2BD0B2F5D110BD2DE948
:10244000F04F054601302B78202BFAD08D6000200C
:102450002B5C0BB92B1819E02F2BFBD05C2B02D176
:102460000020BDE8F08F03F0F704222CF8D03A2BBF
:10247000F6D003F0BF043C2CF2D0A3F13E04012CB3
:10248000EED9203B5E2BEBD80130E1E71E4613F876
:10249000014B202CFAD02F2CF8D0166050B12B18FD
:1024A00013F8013C2E2B01D0202B01D10138F5E788
:1024B000FF28D5DC48600023CA18013320240B2BE9
:1024C0005473F9D10022AB5C2E2B01D10132FAE713
:1024D000202BFBD0D2F1010738BF0027441E631C1C
:1024E00007D100264FF0070CB346B0464FF008095D
:1024F00009E02B5D2E2BF4D0013CF0E7AB5C202BE8
:1025000004D1002701328242F8DB49E02E2B02D1B0
:102510009442F6D103E0222B17D07C2B15D0A3F1E7
:102520002A0ABAF1050F01D82D2B0ED1A3F13A0AD0
:10253000BAF1050F09D9A3F15B0ABAF1020F04D968
:10254000A3F1210ABAF15D0F04D9A24224D00027D9
:102550005F2301E0A2421FD0664541D8A3F1610A82
:10256000BAF1190F04D8203BDBB248EA090806E0AB
:10257000A3F1410ABAF1190F98BF4BEA090B06F112
:10258000010A5FFA8AFA0E44BAF1060F737301D892
:1025900081F80CA05646B5E7BCF10A0F19D1002707
:1025A0004B7B202B3FF45CAF4FB118EA0B0F18BFE9
:1025B0004FF0020881F800800120BDE8F08F0B7B0E
:1025C0000120087019447E234B7331238B73BDE8BF
:1025D000F08F22464FF00A0C08264FF0100991E7C1
:1025E000BCF10A0FDBD0A242D9DC22464FF00A0C24
:1025F00008264FF0100984E7F8B50D7B07460C4616
:1026000002266168A06873189BB200228A4208D033
:1026100010F802E003EB43138EEA03039BB201328E
:10262000F4E7032D28BF03252A1DD2B203F00F01C2
:10263000A018013A0929D2B294BF30313731AA42E9
:1026400041734FEA1313F1D863197E225A73384647
:102650000021FFF7ECFC01213846FFF7CBFC0146D7
:1026600028B97878D0F1010038BF0020F8BD037890
:1026700053B1C37A1B07EED404F10D000B2204F012
:102680004FFA0028E7D101E00120F8BD0136B6B2CB
:10269000642EB6D1F8BDFFFF2DE9F04F8BB00D468B
:1026A0000693536804930B78089013F0700F174645
:1026B00001D1002091E108990B78002BF9D1137812
:1026C0009B0700F08181049B03F10C090D23B9FBEA
:1026D000F3F909F101095FFA89F94FF0000828467A
:1026E0000021FFF7A4FCC346CDF8148046464446BB
:1026F000CDF81C806B6928460121C3F34F1AFFF700
:1027000079FC034620B96B78002B00F08880D0E775
:102710000278E52A00D042B9002E08BFD0464E45C7
:102720003CBF0136F6B222B979E04E4538BF0026EB
:1027300003E0E52A01D10024DCE72E2AFBD0D97A78
:102740000F2949D13CB95106D4D502F01F04597B59
:102750000591A34609E00BF1FF3C5FFA8CFB5A455B
:10276000E9D15A7B05998A42E5D10D210BF1FF325F
:102770004A4304998A429246DDD202F10D01099141
:10278000C2EB0A011846C9B202920393FFF732FE68
:102790000499029A039B8A4503D1002818BF00249C
:1027A000A8E7FF28C7D8C0B2A0F141011929B9682C
:1027B00011F80AE098BF20300AF1010CAEF1410A8D
:1027C00098BFC0B2BAF1190F9CBF0EF1200E5FFA8C
:1027D0008EFE7045AFD1FAE00807ACD45CB1BBF116
:1027E000010F7FF466AF1846FFF71AFE059B98426B
:1027F0007FF45FAF0EE0184607F10D010B2204F0E5
:102800008FF900287FF476AF3B78D90702D50123F2
:1028100007936FE7069B1A0640F1CE8049E70699B9
:1028200001F04203422B7FF444AF002E18BFC24692
:102830004E4516D228460021FFF7DCFB10B96B7815
:102840007BB136E70136F6B2F2E72846FFF76EFABB
:1028500000283FF42EAFAB681B79012B03D810364C
:10286000F6B24E45F1D3079B33B128463946FFF700
:10287000C3FE00283FF41DAF28464FEA4A11FFF778
:10288000D6FB00283FF415AF09F1FF34E4B2A046AF
:1028900045E028460021FFF7ADFB064600283FF43F
:1028A00008AFAB6893F82420A04542F0010283F8FA
:1028B00024204FF000090CBF48F0400AC2460F2305
:1028C00080F800A0C37280F80C9007F10D00FFF7AC
:1028D000A7FD0AF01F0A70730AF1FF3A0D22B868CB
:1028E00086F81A9086F81B9002FB0AF24B46049970
:1028F0008A4218D2815C5FFA83FCBCF1040F03F1B9
:10290000010E16D806EB4303A3F8011073460D2BF6
:1029100002F10102EBD108F1FF385FFA88F8B8F153
:10292000000FB6D10EE00CBF00216FF0000189B29C
:10293000E1E7BCF10A0F94BF06EB430306EB4E033D
:102940009980E3E76B6928464146C3F34F1AFFF7C6
:1029500051FB064600283FF4ACAE2022414601F070
:1029600031FA3B4653F80D2F32605A6872601A896B
:1029700032819B7AB3723B7803F018033373184BA0
:102980001B682BB106F1100006F10E01984707E015
:102990002123337428237374082386F80E80F3737D
:1029A000338A73823383F389F382AB6893F82420EC
:1029B00042F0010283F8242000940898069B2946DF
:1029C0005246FFF776FB08E04FF0010985E60999CA
:1029D0008C453FF48FAEE246D2E60BB0BDE8F08FF7
:1029E0004426002070B50378DA0704461ED54368F4
:1029F000A16800F10C063246186800F041FB05465C
:102A000008B9002513E023789B0704D4237823F02A
:102A1000010323700BE06368A26819691868114408
:102A2000324600F02DFB0028F0D1EAE701252846C8
:102A300070BD83688B4270B504460D46164614D0AF
:102A4000FFF7D0FF08B9002070BD730703D500233E
:102A50002370A56009E063682946186804F10C0238
:102A600000F084FA0028F2D1EDE72378204606F042
:102A700003061E4300F80C6B70BD83794069023970
:102A800099400844704770B5C379202B04460D4621
:102A9000164611D18169022200F50C7001EBD511A7
:102AA000FFF7C7FF08B9FF201CE005F07F0550F8CD
:102AB000253023F070430FE0102BF4D18369C1F36C
:102AC000072100F50C7019440222FFF7B2FF00281D
:102AD000E9D0EDB230F81530E26993429ABF336025
:102AE0000120002040B270BD38B5C379202B0C46C0
:102AF00015460DD18169032200F50C7001EBD4114C
:102B0000FFF797FFB8B104F07F0440F8245011E0BC
:102B1000102B01D0002038BD8369C1F3072100F5D7
:102B20000C7019440322FFF784FF0028F2D0E4B2AE
:102B300020F81450012038BD2DE9F3410546904698
:102B40000F4609B9C66800E00E463446EB69013409
:102B50009C4288BF02242846214601AAFFF793FF22
:102B600000280DDB01D0019B13B1B442EED107E088
:102B7000284621466FF07042FFF7B6FF064608B9B7
:102B800000260AE037B1284639462246FFF7ACFF57
:102B900008B9F5E7EC60C8F80040304602B0BDE87F
:102BA000F08173B505460C462846214601AAFFF779
:102BB0006AFF061E01DA00200DE0284621460022A9
:102BC000FFF792FF0028F6D0EB689C4238BFEC601C
:102BD000019C002EE8D102B070BD70B50122044600
:102BE0000023C2604FF0FF32C3710D46A06280F82F
:102BF0002430C262C4F8340280F83032C0F838227F
:102C000099B1042958D8243019461A46FFF711FF04
:102C1000002851D000EB051505F5D475AA795306A7
:102C20004AD1D5F80E50002D46D004F12400294693
:102C30000022FFF7FEFE00283ED0B0F80B30B3F5BF
:102C4000007F39D1037C022B36D1C389A3B3427BE9
:102C50002271531E63710023A371092101239A423B
:102C600007D0013928D0A6795B000136DBB2A67106
:102C7000F5E7C38A03B9436A2361C1892944A16185
:102C8000B0F811202281520101EB430302F2FF123E
:102C9000236203EB52236361B0F8132002B9026A86
:102CA000ED1AA1791544CD406B1CE36140F6F47335
:102CB0009D4203D80C23E371002070BD4FF6F473DE
:102CC0009D4285BFC36A236210232023E371012044
:102CD00070BDFFFF034B82B01B680193019880B267
:102CE00002B07047D026002038B5057A04464DB9A9
:102CF000406800F083FA63682946187901F032FBD6
:102D00000123237238BD037A10B504466BB14368C2
:102D10000121187901F026FB6068FF2100F0FCFA20
:102D2000606800F07FFA0023237210BDF8B50446F6
:102D30000E461546FFF7CEFF0746606800F092FA90
:102D4000FF28607207D1FFF7C5FFC01BB0F5967F63
:102D5000F3DD54230BE0FE2801D0502307E0606828
:102D600031462A4600F092FA607230B16023204664
:102D70002370FFF7C8FF0020F8BD606800F072FA0A
:102D8000606800F06FFA0120F8BD70B504460E4689
:102D9000FFF7A0FF0546606800F064FAFF2806D040
:102DA000FFF798FF401BB042F5DD002070BD012009
:102DB00070BDF7B5037A019204460D460BB9FFF7D3
:102DC00093FF4FF416712046FFF7DFFF606845F070
:102DD000400100F0A1FA0DF107060DF1030716F806
:102DE0000119606800F098FABE42F8D1002D14BFB6
:102DF00087219521606800F08FFA0C2D02D1606860
:102E000000F030FA0025606800F02CFA03066072CA
:102E100003D50135B5F5807FF5D103B0F0BD70B5B0
:102E200006460D46144637210022FFF7C2FF304602
:102E300029462246BDE87040FFF7BBBFF8B50446FF
:102E40000020616020722070A07216461F46FFF7B6
:102E500041FF31460546606800F0D5F96368424A93
:102E60001A602046FFF740FF63680121187901F0DE
:102E700079FA0A266068FF21013E00F04DFA16F04B
:102E8000FF06F7D163683146187901F06BFA00212B
:102E900020460A46FFF78DFF012807D0FFF71AFFEB
:102EA000401BB0F5FA6FF2DD202344E020460821F4
:102EB0004FF4D572FFF77DFF052801D101230BE008
:102EC0000426606800F0CEF9013E16F0FF0660723D
:102ED000F7D1AA2808D10223A372A37A022B14BF28
:102EE00000264FF0804607E0FFF7F4FE401BB0F5E8
:102EF000FA6FDBDD25231EE0324620462921FFF74D
:102F00008EFF024638B1FFF7E5FE401BB0F5FA6FC1
:102F1000F2DD43230FE0A37A022B06D02046FFF711
:102F2000F2FE636801201F60F8BD20463A21FFF7DA
:102F300040FF30B1372320462370FFF7E4FE002026
:102F4000F8BD606800F08EF900F0C000C02804BF32
:102F50000323A372606800F085F9606800F082F9CD
:102F6000606800F07FF9D9E70650013838B515469A
:102F7000827A032A0B4618BF4B021A4611210446D7
:102F8000FFF717FF10B1302323700BE029462046CE
:102F90004FF40072FFF7CAFE054618B12046FFF74E
:102FA000B2FE03E02046FFF7AEFE0025284638BDFE
:102FB00010B5837A032B0A4618BF4A021221044631
:102FC000FFF7F7FE30B1312320462370FFF79BFE59
:102FD000002010BD012010BD10B50C2100220446B8
:102FE000FFF7E7FE30B1282320462370FFF78BFE62
:102FF000002010BD2046FFF786FE012010BDF8B569
:10300000054617461E46FFF7D3FF90B10024A3B232
:10301000B34207EB4421284607D24FF40072FFF772
:1030200085FE01340028F2D103E0BDE8F840FFF747
:10303000D3BF0020F8BD38B504461546406800F0FF
:103040006BF94FF400726068294600F075F960680A
:10305000FF2100F061F96068FF2100F05DF9606810
:1030600000F000F9607200F01F00052806D056231A
:1030700020462370FFF747FE002038BD012038BDF1
:1030800038B51546827A032A0B4618BF4B021A46FA
:1030900018210446FFF78DFE10B1322323700AE099
:1030A0002A462046FE21FFF7C6FF054618B12046F6
:1030B000FFF729FE03E02046FFF725FE00252846FE
:1030C00038BD38B50D464FF416710446FFF75DFE66
:1030D00010B95923237005E02046FC212A46FFF74A
:1030E000AAFF18B92046FFF70EFE002038BD10B524
:1030F000837A032B0A4618BF4A0219210446FFF7B8
:1031000058FE30B1332320462370FFF7FCFD00202A
:1031100010BD012010BD38B54FF416710446FFF7FD
:1031200034FE054620B16068FD2100F0F5F801E0AD
:10313000552323702046FFF7E6FD284638BDF8B535
:10314000054617461E46FFF7D2FF70B10024B44271
:1031500007EB4421284604D0FFF7B3FF28B1013420
:10316000F5E7BDE8F840FFF7D6BF2846FFF7CBFDEF
:103170000020F8BD10B5184B1A7802B372B61B7850
:10318000D90707D5154A1649146809682140154C16
:10319000216011609A0707D5134A114914684968DC
:1031A0002140104C616011605B0707D50F4B0C4A42
:1031B000196892680A400B498A601A6062B60C4B23
:1031C000DA68824207D00B4A1A60D8600A4A40F097
:1031D000804018611A6010BD6026002080E100E088
:1031E000482600205426002084E100E088E100E029
:1031F00000C0024001401F0000001F8008B50068A9
:10320000FFF7B8FF08BD10B504460171084601215B
:1032100001F0D6F82079012101F0A4F8BDE81040B2
:1032200000F0D2B80A4B1B788BB1D90703D5094AF5
:103230001168094A11609A0703D5064A5168074A7E
:1032400011605B0703D5034B9A68054B1A60704702
:10325000602600205426002000E100E004E100E0A8
:1032600008E100E0084B1A6842F480621A604FF0EF
:103270000042DA62FF225A63DA6A002AFCDA024B61
:10328000986BC0B2704700BF00C002401F4B70B5C2
:1032900014461F4A1A60E3070D4605D54E1CFFF77A
:1032A000E1FF013C28703546052C94BF63080323D9
:1032B00000229A4204DA1549164848630132F8E7B9
:1032C000A4EB43042C442946A1420DD20F4AD06AF4
:1032D00010F0F00FFAD00F485063926B4A70C2F3AF
:1032E000072008700231EFE704EB430399420BD249
:1032F000064AD06A10F0F00FFAD0926B4A70C2F30F
:10330000072008700231F1E7002070BD00C00240C4
:1033100000041F80FFFF0090064B1A6842F4806291
:103320001A604FF00042DA625963DA6A002AFCDA66
:10333000704700BF00C00240214B70B51446214ABF
:103340001A60E30705D54D1C0978FFF7E5FF013C3E
:103350002946052C94BF630803230C440A46002029
:10336000984202F102020BDA12F8015C12F8026CC8
:1033700045EA0626124D46F010466E630130EFE72F
:1033800023EAE37201EB4201A14215D208784A78A0
:1033900042EA00200A4AD56A15F0F00FFAD040F050
:1033A00010405063926B0231EEE7054AD16A11F08A
:1033B000F00FFAD0926B013B002BF6D170BD00BF2D
:1033C00000C0024000041F80164B1A6842F480526D
:1033D0001A60154B154A1A60154ADA6002F18042EC
:1033E0001A61144A1A60144B1B78DA0755BF134A46
:1033F000134A4FF410714FF4007113F0020F116073
:103400000CBF104910495B074FF4007254BF0F4BBB
:103410000F4B0A6054BF4FF410724FF400721A60E1
:10342000704700BF3C80044000C0024001401F00C4
:103430000110003800001F80CC27002018B0044085
:1034400008C004401CB004400CC0044014B0044048
:1034500004C00440044BD878044B1A68C0B29042B0
:1034600018BF1860704700BF00600640A088FF1FAB
:10347000094B1B7813B9094B1B782BB1084A1378F9
:10348000202B03D90123037100207047581C1070B2
:10349000044A0120D1547047C62600208926002006
:1034A000C7260020682600207047FFFF024B1878CF
:1034B000024B1B78C01A7047C5260020C426002086
:1034C000064A074913780978994204D9591C1170A2
:1034D000044AD05C70474FF0FF307047C42600208C
:1034E000C52600208A260020054B064A1B78127844
:1034F0009A4286BF044AD05C4FF0FF30704700BF4D
:10350000C4260020C52600208A26002070B50E4B58
:103510001B78144613B90D4B1B7893B10C4A1578E0
:10352000C5F121039C42164602D9012202711C46B4
:10353000084822462844254400F0AAFB357020465E
:1035400070BD184670BD00BFC62600208926002029
:10355000C72600206826002010B5114BDB7803F049
:10356000200303F0FF045BB9122000F0CDFE0D4BE9
:103570001B68A3B10C4A14700C4A1078984710BD10
:103580000B4A13780133DBB2012B137002D8094BBD
:103590001B7823B91220BDE8104000F0B5BE10BD65
:1035A0000060064064260020C4260020C5260020B6
:1035B000B026002089260020002202714FF47A7183
:1035C0000273024A81600260704700BF58700000B9
:1035D000094B1B685B060DD5084B9942084B01D877
:1035E000272204E0074A914294BF1A220D225A7002
:1035F00004229A71704700BF348004407F1A06008D
:10360000006006403F420F00174A08B500231370C0
:10361000164A116841F040011160154A9370154B2C
:103620001B78122B03D14FF41972134B04E0112BAA
:1036300003D1124B4FF419721A60114B1B78132BE4
:1036400003D14FF419720F4B04E0102B03D10E4B32
:103650004FF419721A600D49FFF7BAFF044B20228C
:103660005A7180229A7008BD892600203480044057
:10367000006006409C88FF1F0CA0044004A004408A
:10368000A488FF1F08A0044000A00440A0860100F9
:1036900010B53649CB78DBB213F0100F03F04002BF
:1036A00001D12AB92CE01020C870002AF9D110BD30
:1036B00003F0040303F0FF012D4AC3B1002313708C
:1036C0002C4A13702C4B1B68144603B1984723787F
:1036D0002A4A1BB92749137001200870234BD021B7
:1036E000997012781A71264B01221A7039E0012361
:1036F0001370244B19701D4BC0229A701B7930E057
:103700001A4CA27802F0100202F0FF01AAB113F0E5
:1037100001030ED11A4917480A780078904203D95C
:10372000531C0B70154B9B5C2371104BD0229A706D
:1037300017E0C023A370237913E0134B0322197001
:103740001220124900F096FD0E4A217913781F2BA2
:10375000C9B206D80648007818B1581C10700C4A37
:10376000D154024B0222DA7010BD00BF0060064047
:1037700061260020C7260020AC26002068260020F5
:10378000C8260020C5260020B0260020593500009C
:103790008A260020044B054A490019700123137042
:1037A000034A1370704700BF68260020C626002019
:1037B000C7260020F7B52D4B1222DA709A789206B0
:1037C0000F4601D5B4221CE0294B1A680092009CD8
:1037D0001D46FFF73FFE00F0200000F0FF0360B140
:1037E0002B680193019B1B1B0F2BF2D91F4B00224F
:1037F0009A7080229A70042036E01E4A13701B4B88
:10380000B0229A70FFF726FE8306FBD500251A4BDF
:103810001B78ECB2A3421FD9184B1A5D134B1A71D7
:10382000FFF718FE860701D48006F9D40F4E022355
:10383000F370FFF70FFEC10601D4820603D4802384
:10384000B370042009E0C30705F10105DFD5002CA2
:103850000CBF0220032001E0002017B1034B80229F
:103860009A70074B00221A7003B0F0BD006006404A
:10387000D026002089260020C726002068260020A8
:10388000C62600200121FFF795BFFFFF0148FFF783
:1038900093BE00BFB42600200022FF218270417039
:1038A0000270C2707047C37823B109B9FF2300E0EA
:1038B000002343707047FFFF10B5064C2046FFF70A
:1038C00069FF2046FFF7DEFFD0F1010038BF00207E
:1038D00010BD00BFB426002010B504468170074813
:1038E000FFF792FE2046A178FFF7E6FFE07018B1DF
:1038F0000248FFF7E5FD2070E07810BDB4260020F7
:1039000010B50446C07870B16378094821EA030114
:103910002170A178FFF73EFF05482178FFF7A8FD49
:103920000348FFF7AFFFD0F1010038BF002010BD02
:10393000B42600207047704708B5036801225B6910
:103940009847012008BDFFFF00220271014A026072
:10395000704700BF8070000008B50368FF211B6935
:10396000984708BD08B5036800225B69984708BD01
:1039700008B50121FFF7F6FF4FF47A43013B7FF4CE
:10398000FDAF08BD08B50221FFF7ECFF4FF47A4305
:10399000013B7FF4FDAF08BD13B5114C034654F84D
:1039A000040B009020680190187A1C89824228BF7D
:1039B00000F1FF3241F2040028BFD2B2844202A8D3
:1039C000024418460CBF12F8042C12F8082C1144BB
:1039D00061F07F01C9B202B0BDE81040FFF7C2BF7D
:1039E00070700000817941F00402827141F00C0195
:1039F000FFF7B8BF012A38B5044603D9407940F033
:103A000008006071227261722BB1012A03D16379BF
:103A100043F004036371642000F02EFD6179324DA0
:103A200011F0100F25D1236820465B690321022283
:103A30009847013D7FF4FDAF236820465B69032171
:103A400002224FF4965598472B46013B7FF4FDAF79
:103A5000236820465B690321022298472B46013BDD
:103A60007FF4FDAF236802215B6920460A46984730
:103A700019E0204641F02001FFF774FF013D7FF47B
:103A8000FDAF6179204641F020014FF49655FFF7D4
:103A900069FF2B46013B7FF4FDAF6179204641F081
:103AA0002001FFF75FFF013D7FF4FDAF6179204604
:103AB00041F02001FFF756FF4FF4F063013B7FF424
:103AC000FDAF0423A3712046FFF78CFF2046FFF7CC
:103AD0004FFF02232046E3710621FFF743FF2046F4
:103AE000BDE83840FFF738BF8032020010B501242E
:103AF00004FA01F10368017382721B69002198477F
:103B000010BD027B03466AB1807A08B921B902E090
:103B1000012800D101B100225A7303F10E00597B34
:103B2000FFF7EEBE7047F8B5044600F10E073846C1
:103B3000E17AFFF7D1FE012806464FF000050AD1D1
:103B400038463146FFF7AFFE657138462946FFF724
:103B5000D7FE3046F8BD2846F8BDC172002101737A
:103B600041738172012101FA03F3C3749DF800309F
:103B700001FA03F303759DF8043001FA03F343756A
:103B80009DF8083001FA03F383759DF80C3001FAB3
:103B900003F3C3759DF8103001FA02F29940827464
:103BA00001767047F0B5044687B00F4616461D46AD
:103BB000FFF7CAFE20460E4B40F80E3BFFF76CFEA7
:103BC0009DF8303000939DF8343001939DF83830E3
:103BD00002939DF83C3003939DF8403004932046B7
:103BE000394632462B46FFF7B8FF204607B0F0BDF6
:103BF000A070000070B50D46817C044600F10E06F1
:103C000029433046FFF77CFEA17C304625EA0101BE
:103C1000BDE87040FFF774BE002330B51C46CD07E9
:103C200002D5C5186D7D2C430133042B4FEA510199
:103C3000F5D1012A437B08BF027D44EA0301114309
:103C4000BDE83040FFF7D6BF022A70B506461446DD
:103C500001F00F0502D12946002205E00909FFF70E
:103C6000DBFF304629462246BDE87040FFF7D4BF4F
:103C70002DE9F04104460F4616461D46FFF753FF57
:103C80002046394632462B46BDE8F041FFF7B2BE2A
:103C9000844641EA000313F003036DD1403A41D357
:103CA00051F8043B40F8043B51F8043B40F8043B16
:103CB00051F8043B40F8043B51F8043B40F8043B06
:103CC00051F8043B40F8043B51F8043B40F8043BF6
:103CD00051F8043B40F8043B51F8043B40F8043BE6
:103CE00051F8043B40F8043B51F8043B40F8043BD6
:103CF00051F8043B40F8043B51F8043B40F8043BC6
:103D000051F8043B40F8043B51F8043B40F8043BB5
:103D100051F8043B40F8043B51F8043B40F8043BA5
:103D2000403ABDD2303211D351F8043B40F8043B45
:103D300051F8043B40F8043B51F8043B40F8043B85
:103D400051F8043B40F8043B103AEDD20C3205D355
:103D500051F8043B40F8043B043AF9D2043208D04D
:103D6000D2071CBF11F8013B00F8013B01D30B88BF
:103D700003806046704700BF082A13D38B078DD09D
:103D800010F003038AD0C3F10403D21ADB071CBF6F
:103D900011F8013B00F8013B80D331F8023B20F8D9
:103DA000023B7BE7043AD9D3013A11F8013B00F812
:103DB000013BF9D20B7803704B7843708B7883709A
:103DC0006046704701B5EAB1102A17DB00F007031F
:103DD00033B1C3F10803D21A013B00F8011BFBDC2D
:103DE000C9B241EA012141EA01418C46D308013BB5
:103DF000E0E8021CFBDC12F0070203D0013A00F8F5
:103E0000011BFBDC01BD00BFF0B5304B1B681B067E
:103E1000FBD42F4B1B6813F08002F6D172B62D4BEA
:103E20001978002950D02C4908684F688E68CD68F1
:103E30000C6938441431304409682844204408444B
:103E4000C0F34E00254940F400400860C86A0F6B7B
:103E50004E6B8D6BCC6B384440313044096828443C
:103E600020440844C0F34E001D4940F4004008605F
:103E700001F10811143151F8140C51F8107C51F86B
:103E80000C6C51F8085C51F8044C09683844304413
:103E9000284420440844C0F34E00124940F4004036
:103EA0000860C86A0F6B4E6B8D6BCC6B3844403129
:103EB00030440968284420440844C0F34E000A49AD
:103EC00040F4004008601A7062B6F0BD24B00340B0
:103ED00024B00B40CA26002038B003402CB0034069
:103EE00030B003402CB00B4030B00B4010B5204B2D
:103EF0002048214960221A70E1225A701F4B204A43
:103F00001C78204B082C01D1012402E00A2C03D19B
:103F100039240460132005E00C2C0CBF35243D240B
:103F200004601220086014601860174B17491B7852
:103F3000174A03B101230B601360164B164A197818
:103F4000164B012901D880210BE0042901D88421D6
:103F500007E0082901D8852103E0102994BF8621B4
:103F60008721116019600E4B01221A7010BD00BF2D
:103F70000040074008B003400CB00340A588FF1F75
:103F800008B00B400CB00B40CD26002020B0034001
:103F900020B00B40A688FF1F24B0034024B00B4084
:103FA000CA260020282838B547D8254B1C5CFF2C92
:103FB00043D0244B1B780BB1FFF726FF210614D406
:103FC00072B6214B214D1C6001232B7062B672B674
:103FD0001D4B1B681A0601D51D4B1FE02B78002BCB
:103FE000EFD062B601F038FAF1E772B6194B1A4D0C
:103FF0001A6814F0400F14BF22F0100242F01002B1
:104000001A60164B04F03F021A6001232B7062B64F
:1040100072B6124B1B681B0608D5114B186800239B
:104020002B7062B60F4B1B78184138BD2B78002BD4
:10403000DCD062B601F010FAEAE7002038BD00BF1C
:10404000B8700000CA26002000B00340CC26002033
:1040500010B003400CB00B40CB26002000B00B404A
:1040600010B00B40C9260020024B1B78DB07FBD5A4
:10407000704700BF010002407FB51C4B6A4603F148
:1040800010056E4618685968144603C40833AB42DD
:104090002246F7D1164B1A7812F0020F1D461CD09B
:1040A000144A154B117811F0700118BF117080225D
:1040B0001A70002203F8032C33221A710322DA70DB
:1040C00072B60C4C46F001062046B04762B6237823
:1040D00013F0700301D0237005E0084B2A78D20753
:1040E00001D4013BFAD104B070BD00BFE270000002
:1040F000010002400000024007000240410D0300A1
:10410000B0F5006F10B504460AD2064B1B78DB07EA
:1041100001D4FFF7B1FF04F1A0542078C0B210BD64
:10412000002010BD01000240B0F5006F38B5044614
:104130000D4615D20B4B1B78DB0701D4FFF79CFF14
:1041400004F1A0542378AB420AD0074B1A7812F03E
:10415000700218BF1A702570BDE83840FFF784BFA1
:1041600038BD00BF0100024000000240024B1A6847
:1041700001321A60704700BFD026002008B50B4CF2
:104180002368580301D500F0A7FA2368590501D523
:1041900001F06CFC23681A0501D501F0C5FF236806
:1041A000DB04ECD502F040FAE9E700BF34800440BC
:1041B00008B5FFF7E3FFFFFF014B10221A8070479D
:1041C000002005407047FFFF024A13681844106042
:1041D00018467047A888FF1FFEE7FFFFEFF3138321
:1041E0009BB9EFF3108098B9EFF3058323B10F2B40
:1041F00004D9084A985C01E04FF48070EFF3118312
:104200003BB1834238BF184670474FF0FF307047CC
:1042100018467047F0E300E07047FFFF00F14040B0
:10422000A0F592237C2B14D9A0F594237C2B12D9D2
:10423000A0F596237C2B10D9A0F598237C2B06D9CA
:10424000A0F59A207D28064828BF00207047054821
:10425000704705487047054870470548704700BFDC
:104260008489FF1F6489FF1FAC88FF1FE488FF1F3C
:104270003489FF1F212870B50D4636D8042A34D85A
:10428000DFE802F00709050B03000B2306E00A2311
:1042900004E0082302E00C2300E009231E04134B72
:1042A000134A03EBC000134B4468C3F89C21124A25
:1042B000C3F8A021114AC3F8A421114AC3F8A821C8
:1042C0002046104AC3F8AC21FFF7A8FF68B172B6C8
:1042D000226822F470222260C4F3840342F08072C8
:1042E000164340F82350266062B670BDF47000009B
:1042F0001188FF1F0082FF1FE587FF1FB987FF1F7F
:104300008D87FF1F6187FF1F0C4B03EBC00010B5AB
:1043100044682046FFF782FF70B172B6236823F02D
:10432000877323F4803343F080732360C4F38404E1
:10433000034B40F8243062B610BD00BFF47000009B
:1043400019420000044B054900221A600A60044A21
:10435000106010221A60704714D0034004D003404C
:1043600000D00340212810B518D80D4A52F830303B
:1043700093F880423CB1012211B183F8802010BD36
:1043800083F8002110BD02EBC00043681A6811B128
:1043900042F0030201E022F002021A6010BD00BFE9
:1043A000F4700000212806D8044B53F8303093F8FD
:1043B0000002C0B270470020704700BFF4700000D8
:1043C000212810B537D81C4A02EBC00301295B68CD
:1043D000144601D004290FD154F83020012082F86E
:1043E00080024FF4A2721A601A6804290CBF42F0CE
:1043F000200222F020021DE052F83020002082F836
:10440000800211B18A1E012A12D84FF4807202294B
:104410001A6003D11A6842F003020BE003290AD1A3
:104420001A6842F002021A601A6822F0010201E0E2
:1044300040F203121A6010BDF470000072B60B4B0C
:104440000B491A680B4B1B68096862B6490102D513
:10445000322A88BF0133C2F5BB326021FF32B2FB82
:10446000F1F24FF47A7000FB0320704718E000E08F
:1044700004ED00E0D026002038B50446FFF7DEFF4B
:10448000054624B938BD013C0AD005F57A75FFF719
:10449000D5FF401BB0F57A7FF5D200F0DDFFF6E7DF
:1044A00038BDFFFF204B4FF4000210B51A604FF0EB
:1044B00080721A604FF000721A604FF080621A60CA
:1044C0004FF000621A60194B194A1A4C00204BF643
:1044D000FF71186059602823136093601361936122
:1044E00013629362136393630922226004F580547C
:1044F000043420606160A360236144F8042C04F557
:10450000FE2420600C4801600C490B608B600C4B52
:104510001A60FFF7EBFC4FF4C870FFF7ADFFBDE882
:10452000104000F0D7BB00BF08E100E0048003406A
:104530000C8003400080034008800B400C800B403F
:1045400000800B40F0B50C4B0C4C1A7842F0020581
:1045500004EBC50682F00102706009481A70067803
:10456000002E0CBF8827C82786F0010647EA0141C4
:10457000067044F83510F0BD3C2700200080FF1F76
:10458000B4270020431E032B10B510D872B6094A79
:1045900052F8230048B1416842F82310064A0188C6
:1045A00032F81340611A22F8131062B610BD0020D1
:1045B00010BD00BF2C270020A029002001380328AF
:1045C0000AD872B6054B53F82030002013B10130E1
:1045D0005B68FBE762B670470020704780270020C9
:1045E00010B572B60123174A1A4412F8012C1207AB
:1045F0001CD59900144A52F831402CB902EB4313F0
:1046000008305860114B09E041F0010152F8314087
:1046100064B902EBC103083058600D4B42F83130E9
:104620000C4B1A78013A1A7062B610BD0133052B93
:10463000D9D162B6074B00221A70BDE8104000F0D5
:10464000A7BB00BF307200000080FF1F8800400041
:10465000C8004000AA270020431E032B30B532D8E3
:10466000194A400140F01000104472B6174CE25C49
:10467000032A09D8DFE802F01602180508300222E2
:1046800013E00830042210E01148124A50F8234089
:1046900014B940F8231002E052F82300416042F8B8
:1046A00023100FE0032200E00522E25410F0080F6F
:1046B00001F108030A8843600CBF8823C82343EA3A
:1046C0000243036062B630BD0080FF1FE826002071
:1046D00080270020902700202DE9F84FAB4F3C7831
:1046E000E4B214F0040F3D4619D0A94B1B78A3B1D6
:1046F000A84A117801F0FF0321B1013BDBB213702E
:1047000003B900BEA44A117801F0FF0329B1013BAF
:10471000DBB213700BB900F067FC04233B7004F0AC
:10472000080303F0FF02002B00F067829B4B9C4CB8
:104730001A78D2B215094FEA920840F0E48104EBEE
:10474000C803596854F83830C3F38303013B0C2B7A
:1047500000F2D681DFE813F095019501D401D40170
:10476000D401D401D401D401B001D401D401D401C5
:104770000D008C4D0A684B688B486B6001218B4B98
:1047800044F838302A60DFF85082017092B240F26B
:10479000816000238242C8F800302361A36117D8EA
:1047A000B2F5D06F80F01E81B2F5817F00F0CF802E
:1047B00006D8802A00F0BA80822A00F0BB8031E15E
:1047C00040F202339A4200F0D180B2F5A06F1CE0B3
:1047D00042F22100824200F051810ED8B2F5086FFA
:1047E00000F09E80B2F5106F40F01C81684B6C4E5B
:1047F000AA781A7006F180090AE042F221218A4261
:1048000000F0088142F221339A4200F00F8109E161
:10481000336A1B0603D5706A083800F0B9FA083607
:104820004E45F5D10026B146DFF8B0A156F80A0092
:1048300028B1D0F804B000F0ABFA5846F8E74AF8CF
:1048400006005B4BDFF898A1F05056F80A0028B13B
:10485000D0F804B000F09CFA5846F8E7554B4AF8F7
:104860000600F050544B23F81900544B19F803205C
:10487000023A032A08D8DFE802F002040204002208
:1048800000E0012203F8092009F10109B9F1040F40
:1048900006F10406C8D14A4B00221A7001269A4636
:1048A000484A494B3244334412F8012C9B0012F021
:1048B000080F1A704FEA860925D000F04BFA38B17C
:1048C00004EB461308305860404B44F8393006E09A
:1048D0009AF8003044F8390001338AF8003000F0CB
:1048E00039FA49F0010338B104EBC30208305060D3
:1048F0002E4A44F8332006E044F833009AF800309A
:1049000001338AF8003049F00202013649F0030908
:104910000023052E44F8323044F83930C0D186E007
:104920001B4B2B4C1B7823700B4683E0284C2370C9
:1049300063707EE0AA88042A74D8254C9200237004
:104940006370244B9B5C9E0773D5217071E0AA882D
:1049500002F07F02042A65DC6B88002B62D1910093
:104960001C4A0A44117821F0020159E0AA8802F099
:104970007F02042A56DC6B88002B53D19100154A24
:104980000A44117841F002014AE000BF802007404C
:10499000B32700203D270020B527002090200740A6
:1049A0000080FF1FA0270020B4270020C80040007F
:1049B000D826002090270020A0290020E8260020EB
:1049C000AA2700203072000030C801108800400083
:1049D000AB270020C0200740D42600202C27002031
:1049E000802700206A88A9889F4B53F8084CA3F1C0
:1049F0000C00BCB133F80C6C964209D133F80A6C48
:104A00008E4205D1120A032A0CBF2378038911E0D4
:104A10000C33EAE7954A1168954A1160A978954ADE
:104A2000117004E0944B0F221A7027E000231C46FB
:104A300000E00223EE88B34238BF1E46402E34BF4A
:104A40003546402520462946FFF77CFD761B2C4441
:104A500003D1402D12D1354603E0402E34BF3546F8
:104A6000402520462946FFF76DFD761B2C4401D1D9
:104A7000402D03D1814AC8F8004016800122804BA6
:104A80003DE0804B1A8842F221039A4210D1002364
:104A90007D4AC85C98540133072BF9D11368862BE3
:104AA00002D17A4B0F221A7000200146FFF74AFD0F
:104AB000774B44F8383023E0764E3568B5B1DFF8EF
:104AC000BC81B8F80090B9F1400F34BF4C46402487
:104AD00028462146FFF736FDC4EB09039BB2A8F830
:104AE00000300BB9402C00D12B193360654B1A886C
:104AF000B2F5A06F04D100225A709A78664B1A70F2
:104B000001225F4B6CE004EBC806013D736802F0C4
:104B10000802A3F10800EDB202F0FF01002A36D02E
:104B200000F036F95D485E4B50F82520EAB1516837
:104B300040F8251002F108017160595D03290BD876
:104B4000DFE801F002040608032104E0022102E08C
:104B5000052100E00421595516F0080F12880CBFFA
:104B60008823C82343EA024342E05A5D032A07D858
:104B7000DFE802F040400204002206E0012204E0E7
:104B800016F0080F0CBF022203225A5532E054F8E7
:104B90003820120C23F8082C22B3DFF834E123F874
:104BA000061C43F8041C5EF825303E4913B94EF844
:104BB000250002E051F8253058603B4B41F82500B4
:104BC00033F815100A4423F8152000F0C3F810B18B
:104BD0000830706006E0354B44F838001A7801322E
:104BE0001A7007E02A4B324A16F0080F08BF134626
:104BF00044F8383008233B7070E5E0071FD52049A2
:104C00002B482C4C02230B702B4B1A702B4B18602B
:104C100098602B48D8601A619A615C60164B0D2031
:104C200018702848FF2303702B700274264A1370F3
:104C3000264B9F221A7001230B70BDE8F88F2106C6
:104C400004D50D4B0D221A7080232B70A20705D5B9
:104C50001C4B1A78D2B21A7002232B70E30644BFA1
:104C600010232B70BDE8F88F40720000D026002082
:104C7000B0290020C4270020C0200740A82700201A
:104C800094200740A0270020A82900203D270020CD
:104C9000C8004000D426002098200740802700202C
:104CA000E8260020D8260020A0290020AA270020DE
:104CB00088004000EC2600203C2700200080FF1FD9
:104CC00040270020882007408C2007408420074090
:104CD0002C27002008B501F00FFD00221A4B0021FF
:104CE000D15098180832882A4160F7D1174A1068C5
:104CF00040F48020106002F528326832C3F30720A8
:104D00001070C3F307401B0E10751376FF2302F8D3
:104D10001C3C02F8143C02F88C3C012302F8083CCD
:104D200082F8641002F8183C094B70226FF450713D
:104D30001A700B444FF400721A6003F1C04303F57C
:104D4000C82310221A7008BD0080FF1F3480044061
:104D500049E400E072B60C4A1168B1FA81F30B2BFA
:104D600002D962B6002070474FF00040D84021EAD7
:104D70000001116062B6054948225343C818002259
:104D8000CA504260704700BF8C89FF1F0084FF1F1C
:104D90000C4B4822C31AB3FBF2F30B2B11D80A4A6F
:104DA000127822B1094A12780AB1FFF719BC72B61B
:104DB000074A4FF0004121FA03F3116819431160CB
:104DC00062B670470084FF1FAA270020B327002087
:104DD0008C89FF1F10B5104C23686BB12068428886
:104DE000531C0244147A0288934212D3FFF7D0FF77
:104DF000094B00221A600DE0084B1B7813B94FF0E5
:104E0000FF3010BD0320FFF7BDFB20600028E5D177
:104E1000F5E74380204610BDC0270020B3270020BF
:104E200010B50B4C236813B123686BB902E0094B32
:104E30001B7813B94FF0FF3010BD0320FFF7A2FB22
:104E400020600028F0D1F5E75A881344187A10BD85
:104E5000C0270020B3270020044B9888044B1B6810
:104E60001BB11A885B88D31A18447047A029002008
:104E7000C027002010B5094B1B786BB1084C206887
:104E800018B1FFF785FF002323600320FFF77AFBAB
:104E900010B1FFF77DFFF8E710BD00BFB32700207A
:104EA000C02700202DE9F8432D4E012307460C466C
:104EB0003370002C4FD02B4D2B68A9462BBB4AF2E8
:104EC000F928294B1B7803F0FF020BB9327015E06B
:104ED0000420FFF773FB072808D801233370FFF77E
:104EE00039FFC9F8000080B91D4B1870B8F10108EE
:104EF0001E4B01D01A782AB101221A704FF0FF30F0
:104F0000BDE8F88300F0A8FADBE72968174A48886B
:104F100000231370C0F14002944238BF224600F1D2
:104F2000080C10448C444880A41A934204D0F85CC6
:104F30000CF803000133F8E71F444B883F2B06D9D8
:104F400040230B800420FFF787FB00232B60084BD6
:104F500005221A70ADE734702046BDE8F88300BF23
:104F6000B6270020B8270020B3270020BC27002048
:104F7000B527002007B502AB012103F8010D184643
:104F8000FFF790FF03B05DF804FBFFFF2DE9F04150
:104F9000114B1B78F3B1114E114B3468114D0127A1
:104FA0001F7098464CB1002763882F70042023801F
:104FB0002146FFF751FB376009E0FFF7CBFE0146C2
:104FC00020B104202C70FFF747FB00E02F70002376
:104FD00088F80030BDE8F081B3270020B827002012
:104FE000B6270020B527002038B50E4B1B7803F0FC
:104FF000FF05ABB90C4C216831B14B880B80042004
:10500000FFF72AFB256038BDFFF7A4FE014620B15B
:105010000420BDE83840FFF71FBB044B01221A7083
:1050200038BD00BFB6270020B8270020B5270020D4
:10503000F8B506460C468F180025BC4207D03368E9
:1050400014F8011B1B68304698470544F5E72846CD
:10505000F8BD2DE9F04100258C688AB007468846E6
:105060002E4694B12B46404601A9212200F080F93A
:105070003B68202C34BF224620225B68384601A9B9
:105080001544A41A98470644EBE730460AB0BDE839
:10509000F081FFFF07B5064B1B88ADF804300368AD
:1050A00001A95B680222984703B05DF804FB00BFCA
:1050B0000472000070B505468AB022B90368C9B20F
:1050C0001B6898472CE0012A08BF0A2221B9302228
:1050D0008DF82520212413E02124B1FBF2F002FBFE
:1050E0001011C9B209290AAE94BF303137312644B4
:1050F000C9B206F8241C014610B1013CE4B2ECE749
:1051000033B1013CE4B20AAB23442D2203F8242C32
:105110002B6801A95B6828462144C4F12202984704
:105120000AB070BD0029BABF49422D2300230A22CC
:10513000FFF7C0BF08B1014B18607047C8270020B7
:1051400010B50446006801F0E3FC204610BD38B5F8
:1051500004460D460068013101F08AFD10B184E873
:105160002100012038BD43688B4210B5044606D2A9
:10517000FFF7EDFF20B1A3680BB92268137001207F
:1051800010BDF8B504460F46154622B9036803B1B1
:105190001A7000230BE01146FFF7E5FF064640B901
:1051A000206810B101F0B4FC266000236360A360A6
:1051B00004E0A5602068394601F07EFD2046F8BD78
:1051C00038B50023044603604360836003730D46D3
:1051D00039B1084601F078FD294602462046FFF71E
:1051E000D0FF204638BD81420B4603D009689A683B
:1051F000FFF7C7BF704710B5002304460360436044
:1052000083600373FFF7EFFF204610BD38B50546F6
:105210000C4641B1084601F057FD2146024628469A
:10522000FFF7AFFF00E0A960284638BD13B50023A3
:10523000044603604360836003730A22084601A9A1
:1052400000F02AF9204601A9FFF7E0FF204602B04E
:1052500010BD10B5002386B0044603604360836030
:105260000373084601A900F035F9204601A9FFF7AC
:10527000CDFF204606B010BD2DE9F84303688668CF
:10528000994204460D46904606D39A19914203D29C
:10529000C3EB0109012700E00027B8F1000F16D089
:1052A000464420463146FFF75EFF80B1A068216882
:1052B00047B1084442464944FEF7EAFC236800220D
:1052C0009A5503E00844294601F0F6FCA660204602
:1052D000BDE8F88310B50B46044609689A68FFF7E5
:1052E000CBFF204610BD38B505460C4639B10846FF
:1052F00001F0EAFC214602462846FFF7BDFF28469A
:1053000038BD03680A680BB15AB905E022B1896853
:1053100011B11078404270473BB1806830B11878C5
:1053200070471846114601F0BDBC1846704708B5D5
:1053300082688B689A4206D1FFF7E3FFD0F1010043
:1053400038BF002008BD002008BD826808B50B46A4
:1053500012B919B9012008BD11B90368187802E023
:10536000006801F09FFCD0F1010038BF002008BDAB
:1053700038B50C469AB191B181688B4202D30023B3
:10538000237038BDC91A551E8D4228BF0D460168CD
:105390002A461944204601F0B6FC0023635538BD67
:1053A0009A42F8B504460D4602D911461A460B46F4
:1053B0000020A060AE682060B242606020730CD80C
:1053C000B34238BF1E462B689F5D9855296820461A
:1053D0001144FFF71BFF2B689F552046F8BD10B501
:1053E0008B680446FFF7DCFF204610BD38B5046823
:1053F00005463CB114F8010B20B101F097FC04F80C
:10540000010CF7E7284638BD08B5FCF729FAFBF789
:1054100011FF00F021F8FAE7FFF71EBDFFF7DABC35
:10542000FFF7FEBCFFF7B2BDFFF724BD0846FFF74C
:10543000A1BD08461146FFF735BD7047044B002259
:105440001A714FF47A711A73024A99601A607047A0
:10545000D02700201072000010B50E4C2378BBB985
:1054600001232370FFF7F8FC08B1FFF7E6FF00F017
:1054700087FA08B101F0F1F900F0E0FD08B101F0A0
:1054800074FA01F06DF808B101F0F7FA0023237007
:1054900010BD00BFE027002010B50023B0FBF2F4E0
:1054A00002FB1400092894BF30303730C0B2C85412
:1054B00020460CB10133F1E7CA18547022469A42D3
:1054C00006DA885CCC5C8C54C8540132013BF6E7A8
:1054D000084610BD031E10B50C4603DBBDE81040A6
:1054E000FFF7DABF2D2001F8010B5842FFF7D4FF78
:1054F000204610BD234B1A6842F480621A60224A8B
:1055000000231370214A1370214A1370214A13702B
:10551000214A1370214B1B782BB1152B07D140F278
:1055200013321F4B02E01F4B40F213321A601E4B26
:105530001B78012B05D0052B07D14FF451721B4B63
:1055400002E01B4B4FF451721A601A4BC0F3443205
:105550001A70C0F347125A700221042200F01F0093
:1055600098729A70D9745A7588221A743C22DA702B
:10557000114B40226FF44A711A700B444FF40052E1
:105580001A607047348004406B280020E92700200F
:10559000742800206C280020E82700202A280020FA
:1055A00018C0044040A004409089FF1F1CC0044064
:1055B00044A0044000A006402DE400E0134A937884
:1055C00000F0030103F0EC030B43410748BF43F035
:1055D0001003937000F00F03042B0C4903D18B7957
:1055E00043F040038B715379C20603F0EF03074A7F
:1055F00048BF43F0100353719379810603F0EF0322
:1056000048BF43F010039371704700BF00A00640ED
:1056100008B5114B1B685B0500D408BD0F4B1A7809
:1056200002F0FF0312B1FFF717FFF7E70C4A4FF440
:10563000005111600B4A0C49D37040F203120A600A
:105640004A600A4A13700A4A13700A4B1B680BB16E
:1056500001221A7008BD00BF34800440E8270020F2
:1056600084E100E000A0064040A004406B28002038
:10567000E9270020E427002038B50446094B1B78B1
:1056800003F0FF05002BF9D120460121FEF798FE1B
:1056900020462946FEF766FE034B53F83420034BA1
:1056A0001A6038BDE8270020F47000007028002040
:1056B00010B509B140F08000144A1378984214469E
:1056C00022D0134A126852051DD503F07F03012B27
:1056D00004D0052B05D100220E4B01E00E4B002219
:1056E0001A60002900F07F020CBF44236023012AC6
:1056F00005D0052A07D143F44073064A02E0064A62
:1057000043F440731360207010BD00BF9089FF1FE9
:10571000348004401CC0044044A004400E4A137866
:10572000984218D00D490968490513D52BB1152B9E
:1057300005D10B4B0021196001E00A490B6028B12B
:10574000152807D140F21331054B02E0054B40F21A
:1057500013311960107070472A28002034800440EB
:1057600018C0044040A004400D4A38B5146814F431
:1057700080624FF0000410D021280A4D0AD80A4A4E
:10578000012152F830302B60FEF71AFE2B681C7096
:10579000012038BD2C60204638BD104638BD00BF02
:1057A00034800440E4270020F47000000E4B1B6896
:1057B00013F4806316D012280C4B03D140F202314F
:1057C0000B4A04E0142809D10A4A40F20231116060
:1057D0005A7B42F001025A73012070475A7B02F053
:1057E000FE025A73002070473480044000A0064037
:1057F0000CA0044014C00440F8B51D4B1B685A05AA
:10580000064633D51B4B1B680BB101221A701A4B8D
:105810001C780134402C1F4628BF0024174D2B78DC
:10582000A34218D1FEF7DAFC40280FDC144A1379A2
:105830001B06F3D52B7813490133402B28BF0023D7
:10584000C95CDBB2C9B2D1712B70E7E7FF28E5DD97
:10585000FFF702FEE2E70B4BF6B21E550A4B0122A0
:105860001A70074BE4B2BC223C70DA70F8BD00BF7E
:105870003480044070280020742800206C28002008
:1058800000A00640EA270020E8270020274B1B68DD
:105890005A052DE9F04707468A4644D5244B1B6834
:1058A0000BB101221A703D4607EB0A039D4237D225
:1058B000DFF890801F4E98F8004096F80090013471
:1058C000402C28BF00245FFA89F9A1451DD11A4B4D
:1058D000BC22DA70FEF782FC40280FDC164A1379EE
:1058E0001B060FD5337815490133402B28BF002301
:1058F000C95CDBB2C9B2D171337003E0FF2801DDAE
:10590000FFF7AAFD33784B45E4D00C4B15F8012B7B
:105910001A550B4B0122E4B21A7088F80040C3E715
:10592000054BBC22DA70BDE8F08700BF348004402C
:10593000702800206C28002000A00640EA270020E4
:10594000E82700207428002008B5034B1B7813B10A
:10595000FFF782FDF9E708BDE8270020064A074B5C
:105960001B781078DBB2C0B283422CBF3F3000F10D
:10597000FF30C01A704700BF6C2800207428002038
:10598000054B1878054B1B78C0B2DBB2984238BF84
:105990004030C01A704700BF6B280020E927002064
:1059A00010B5104B10491A780B78D2B2DBB29A427C
:1059B00014D00133402B28BF00230C48DCB2C05C5C
:1059C0000C700B490968C0B251B19A4238BF4032DD
:1059D000D31A1A2B04DC00230B7010BD4FF0FF30DC
:1059E00010BD00BF6B280020E92700202B280020D5
:1059F000E4270020084B1A78084B1B78DBB29A4248
:105A000007D00133402B28BF0023054AD05CC0B229
:105A100070474FF0FF3070476B280020E9270020C7
:105A20002B2800200C4B1B685B0514D50B4BDA7838
:105A300002F0CB02DA7040225A74DA7842F0340273
:105A4000DA70074B1A78074BD2B21A70064B1B68F4
:105A50000BB100221A7070473480044000A0064049
:105A6000E92700206B280020E427002030B5374BC1
:105A70001A7912F0300F31D072B69A7D02F0FF0021
:105A800022B9DA7940225A7462B627E062B6304A07
:105A9000304913780978DBB2C9B214462B4AD5795C
:105AA0005A1C402A28BF00228A42EDB202D02A4B5B
:105AB0009D541346421E12F0FF00EFD1DAB222705D
:105AC000264A126852B18B4236BFC1F14001C1EB88
:105AD00003035B18272BC4BF012313701B4BD9781A
